:020000040800F2
:1000000060080020FD470008054600080746000874
:10001000094600080B4600080D46000800000000D5
:100020000000000000000000000000000F46000873
:10003000114600080000000013460008154600089D
:10004000274800082B4800082F48000833480008BC
:10005000374800083B4800083F480008434800086C
:10006000474800084B4800084F4800081946000858
:1000700053480008574800085B4800085F480008DC
:100080001F46000863480008674800086B480008DE
:100090006F48000873480008774800087B4800084C
:1000A0007F48000883480008874800088B480008FC
:1000B0008F48000893480008974800089B480008AC
:1000C0009F480008A3480008A7480008AB4800085C
:1000D000AF48000825460008B3480008B7480008A4
:1000E000BB480008BF480008C3480008C7480008CC
:1000F000CB480008CF480008D3480008D74800087C
:10010000DB4800082B460008DF480008314600089D
:10011000E3480008E7480008EB480008EF480008FB
:10012000F3480008F7480008374600083D46000835
:10013000FB480008FF480008034900080749000879
:100140000B4900080F490008134900081749000827
:100150001B49000843460008494600081F4900089B
:1001600023490008274900082B4900082F490008A7
:1001700033490008374900083B49000800000000E7
:100180003F490008434900082DE9F84F74A7A2B081
:10019000D7E90045CDE900452C9EDFF8307C04917D
:1001A0008DF843605FF000016FA40D9112944FF041
:1001B000FF368246904699460FE0C3462C461BF810
:1001C000011B0498D0470028049000F0B2800D98DD
:1001D000401C641E0D90F2D1A84498F80000252818
:1001E00007D100210791089109910A910B910C9177
:1001F0000DE06A463146404600F0D0FF050001D1CF
:100200000D98B5E0D9D50125E6E741F0010118F8D0
:10021000010F2028F9D023280CD02B2804D02D281A
:1002200005D0302809D086E041F00201EFE741F027
:100230000401ECE741F00801E9E741F01001E6E7CD
:1002400000200F900AE00F98B84205DA00EB800317
:1002500002EB4302303A0F9208F1010898F80020AF
:10026000A2F130000A28EED398F800002E2818BF1B
:100270000E9629D118F8010F2A280BD1D9F80000C1
:10028000C9F8000008F1010850F8042BC9F8000073
:100290000E9219E02D280CBF18F8010B0020002247
:1002A0000E920BE040B90E9ABA4205DA02EB8204D4
:1002B00003EB4403303B0E9308F1010898F800303B
:1002C000A3F130020A2AEDD3ADF84010129898F845
:1002D000001000F06DFF08B118F8010B8DF8420016
:1002E0009DF84200682804BF98F80010682903D1DF
:1002F00062208DF8420008E06C2804BF98F80000E6
:100300006C2804D171218DF8421008F1010813A85E
:1003100006904A4618F8013B02A9504600F068F8DA
:1003200038B913AA02A9504600F0CAF900287FF58F
:1003300054AF30461CE02A2882D1D9F80020C9F8F1
:10034000002052F8040BC9F8002000280F9003D5B4
:1003500040420F9041F0040108F1010884E70000D9
:100360000000000000000000686A6C747A4C000015
:1003700023B0BDE8F08F622820D0682811D06A2809
:1003800003D06C2827D0712825D10868C01D20F023
:1003900007000860D0E900230830086019461046BD
:1003A0007047002A0A680A60106803D0121D0A60AC
:1003B00000B217E0121D0A6080B217E0002A0A6836
:1003C0000A60106803D0121D0A6040B20AE0121DD4
:1003D0000A60C0B20AE0002A0A680A60106803D006
:1003E000121D0A60C1177047121D0A600021704774
:1003F0007CB50D4611461C462E69B4F1250200F06D
:100400004D811C3A00F08680121F022A40F2828041
:100410000E3A00F00781521F5AD0093A7AD0921E44
:1004200016D0521E35D0521E022A73D9121F30D058
:10043000521F00F09A80521E4AD0521E00F0E480F3
:10044000D21E00F0FD80921E42D0D21E40D02BE181
:1004500095F83A206C2A09D06869421C6A610A68DA
:100460000A6052F8043B0A60335427E10A680A60C4
:1004700052F8043B0A600021009301914FF0FF32D3
:100480002A6329466A4600F096F9002840F1168151
:1004900001E195F83A000122FFF76DFFC5E900017F
:1004A0000023994204DA6869411C69612D210DE03D
:1004B000288F810704D56869411C69612B2105E0FB
:1004C000C00722D56869411C6961202131541CE0B4
:1004D00095F83A000022FFF74EFFC5E9000195F8B4
:1004E0003800010711D5D5E900230020834208BF59
:1004F00082420AD044F02000782806D16869302171
:100500003154401C411C69613454214668693044AF
:10051000E86083E00868C01D20F007000860D0E9AB
:10052000002308300860C5E90023D5E90001C80FA1
:1005300004D06869411C69612D210DE0288F810775
:1005400004D56869411C69612B2105E0C00704D509
:100550006869411C69612021315468693044E86050
:100560002146284600F032FAA8E005F13A02507818
:1005700020B14FF0FF340FF6243070E0107862287D
:1005800008D0682824D06A2812D06C282ED0712870
:100590000ED02BE00A680A6052F8040B0A6020B9FA
:1005A0004FF0FF340FF60C3059E0E96A017085E036
:1005B0000A680A6052F8040B0A6020B94FF0FF3451
:1005C0000FF6F0204BE0EA6AD317C0E9002375E08C
:1005D0000A680A6052F8040B0A6020B94FF0FF3431
:1005E0000FF6D0203BE0E96A018067E00A680A6004
:1005F00052F8040B0A6020B94FF0FF340FF6B42014
:100600002DE0E96A016059E00A680A6052F8040BBB
:100610000A600021C5E90001EE607821284600F05B
:1006200029F94BE06C2285F83A200B680B6053F8EF
:10063000042B0B6052BB4FF0FF340FF6AC200EE0E2
:1006400095F83A206C2AF0D00868086050F8044BFE
:100650000860EC603CB94FF0FF340FF6702000F0FA
:10066000B7FD201A76BD2E6B002E04D5204600F073
:10067000CFFD044608E032460021204600F0E4FDAC
:10068000002814BF041B3446AC6117E0294600F073
:1006900092F8002812D54FF0FF3076BD6869411CF2
:1006A00069612521315409E06969481C6861252286
:1006B0007254210002D0411C69613454002076BD7F
:1006C0002DE9F0410E460546716B7069B46A091A4E
:1006D000306A091AB069091A706A091AF069091AA8
:1006E00096F838000C1B410790460DD4002C0BDD0A
:1006F0002746B0682021A8470028B06057D0F06A8C
:10070000401C7F1EF062F4D1736942463146284690
:1007100000F0ACFC00284AD1376A002F0ADDB0682F
:100720003021A8470028B06041D0F06A401C7F1EED
:10073000F062F4D1B369F2683146284600F096FCC5
:10074000A8BB776A002F09DDB0683021A847B060E8
:1007500068B3F06A401C7F1EF062F5D1F068B169A1
:10076000F36942183146284600F080FCF8B9B76AB0
:10077000002F09DDB0683021A847B060B8B1F06A39
:10078000401C7F1EF062F5D196F8380041070BD56A
:10079000002C09DDB0682021A847B06038B1F06AAC
:1007A000401C641EF062F5D10020BDE8F0814FF0DE
:1007B000FF30BDE8F0812DE9F8470D46A3B02F6B5F
:1007C000002F8146904648BF6FF0004700F068FD5B
:1007D000696B40180FF62C118128D1E90023CDE96F
:1007E000012328BF4FF0FF303ED20024002F2FDD21
:1007F000D8F8001001AA684600F0D2FC0646002E88
:1008000035D4D8F8000008B9761E30D4B7421FDBC3
:100810006869301881280AD30020686303AA294632
:100820004846FFF74DFF040012D40020686103A87A
:10083000D5F814A032466946504400F037FDB24462
:10084000C5F814A058F8040B002818BFBF1BCDD161
:100850002CB903AA29464846FFF732FF044614B9CB
:10086000002068616863204624B0BDE8F0874FF03F
:10087000FF34F8E72DE9FC4707468A463E69BAF19E
:100880006F0F08BF082405D04AF02001782914BF53
:100890000A2410243C25D7E90023BAF1640F18BFBD
:1008A000BAF1690F9046994606D100218B4203DACE
:1008B000D8F1000869EB49090020814508BF80454F
:1008C0001FD1386BE8B9082C4CD197F838000107D4
:1008D00048D530203B2586F83B0043E000280ED564
:1008E00097F8380000F01400102808D17A6B786966
:1008F000121A386A121A511A0029C8BF3962BDE8A3
:10090000F3878DF800A0404649462246E31700F0E1
:1009100021FD3032D0B26D1E3A28019504DB9DF8DE
:100920000000A0F151018A187255404649462246FE
:10093000E31700F00FFD804689460020814508BF7F
:10094000804503D0F86871198842DCD3082C09D19E
:1009500097F83800010705D5715D302902D06D1E6A
:1009600030207055C5F13C01B9617019F860386BE1
:100970008142B3DA411A39624FF6EF70398F014084
:100980003987BDE8F3872DE9D04306460F46144664
:100990004FF00008DFF8389412E0E00707D5424630
:1009A0004B463046394600F0EDFD06460F464046C0
:1009B000494642464B4600F0E5FD641080468946B4
:1009C000002CEAD130463946BDE8D0832DE9F34FFB
:1009D000054641F020048DB0D5E90089612C02AEB6
:1009E00009D0286B002848BF062003D408BF672C15
:1009F00001D101202863D5E9002358004015401C8F
:100A00000ED119030CD00320A8619DF8380061387D
:100A10001A2802D20FF2F46111E00FF2F4610EE035
:100A200058004015401C0FD119030DD10320A861B7
:100A30009DF8380061381A2814D30FF2DC61E86899
:100A4000032200F033FCD3E1194621F00043B3F553
:100A5000801F10460DD20027BB4208BFBA42019743
:100A600003D111E00FF2AC61E9E701AA00F05CFEEE
:100A70000AE0DFF8607307EB1352DFF85C33019292
:100A80001940DFF858331943C5E90001612C0ED134
:100A9000E86830210170811CE9609DF838106129F7
:100AA0000CBF7821582141706869801C6861D5E9C4
:100AB00000AB2BF0004300202AF00002834204BF69
:100AC0008242002300F05A81612C40F0A980286BFB
:100AD00000284CBF2120401C00904046009F7F1CF6
:100AE00049460022002300F057FED94601988DF8B0
:100AF000082038BF89F00049001F0190002FD04620
:100B00000DF1090040F3498140F2FF71DFF8D0B2E6
:100B10000C910646404649460022002300F054FE50
:100B200080F03A814800400D00F11C0210D0002AEC
:100B30000EDD0C98824205DB09F0004040EA0B0113
:100B4000002013E0A448084040EA025140460DE06E
:100B500029F00043002028F00002834208BF8242AF
:100B60000FBF40461C22404600F046FE80468946A4
:100B700000F0E0FEFF1F002F044609DD00F0F8FE44
:100B800002460B464046494600F004FF804689462F
:100B9000F01D072104E004F00F0200F8012D2411DC
:100BA000002C01DD491EF6D5491E5CBF002200F86D
:100BB000012DF9D5ECE00020194602AA0A4400E014
:100BC0005B1E12F80149491E8442F9D00F2804D156
:100BD0000DF10900425C521C4254002904D50198D1
:100BE000001D02AE5B1C0190591E12D49DF8380006
:100BF0007218147804F130085FFA88F4392CC4BFF5
:100C0000A0F13A04A044491E02F80189F1D58DF8FB
:100C10003800286B002840F1B080591E2963ACE0F1
:100C2000404649460022002300F0B6FD019938BF36
:100C300089F0004947F2975041436A4A91FBF2F22A
:100C40000192D2F1070204DD40464946FFF79BFEC0
:100C50000AE0524200206449FFF795FE02460B4627
:100C60004046494600F008FF8046662C286BDFF8B6
:100C70007CB106BF019F0A3706273F18142FC8BF53
:100C8000142730208DF8080089460DF1090000E096
:100C90003046002F34DD06464046494601F010F844
:100CA00001460A4606F1080304200A26B2FBF6F6BE
:100CB00006EB860EA2EB4E02303203F8012C0A221C
:100CC000B6FBF2F202EB820EA6EB4E063036401E69
:100CD00003F8026DE9D1083F002F03F10806D7DDC4
:100CE000084601F001F802460B464046494600F02E
:100CF00051FE00225B4600F045FC80468946CBE76A
:100D00000DF10901401A0DF1090604E00199491E8F
:100D1000401E0191761C31783029F7D0662C02D123
:100D20000199491C03E0652C0CBF012100212B6BAC
:100D3000CB189842B8BF431E002B1ED4834204DA5E
:100D4000F05C3528A8BF392000DA30201946721E21
:100D500002EB010800E05B1E18F80199491E81456D
:100D6000F9D0392802D1705C401C7054002904D598
:100D70000198401C16465B1C0190019800B200903F
:100D80001BB29DF838103246284600F035F82FE0A7
:100D9000C61D002F3FF7BEAE30460DF10901401AC7
:100DA000009903468842C8BF0B46002B0DF1090687
:100DB0003FF52FAF8342BFF6FEAE0DF10900C05CD8
:100DC00007287FF7F8AE0F20F6E60000CBCCCC0C5E
:100DD0000000244002FCFFFFFFFF0F800000E03F07
:100DE0000000F07FA08601000000F03F84D797410B
:100DF0000FB0BDE8F08F00002DE9F84783B006463C
:100E00008A461746984600F0CDF9B8F1000F406ABF
:100E1000356B90F8009002DC4FF00108BFA7BDF9D8
:100E200030404AF02000662808BF641C15D06728AF
:100E300040F0848014F1040FC0F28680AC4280F24E
:100E4000838096F83800641C010702D4A845B8BF17
:100E5000454620B22D1A48BF00250FFA84FAF068E3
:100E6000B169BAF1000F25DC4A1C30234354002D30
:100E700003DC96F83800010703D5F06800F802900B
:100E8000521C15EB0A0FB8BF6C4220B24419414204
:100E90004445B8BFA046B26171620FFA88F5F561AA
:100EA000F068B3692A463946184400F0FFF9641B1C
:100EB000B462C4E022B29045084417DA424639468B
:100EC00000F0F4F9B0694044B061AAEB0801002DCC
:100ED000716203DC96F838100A0705D5F16801F84D
:100EE0000090F069401CF061B562A8E0394600F05E
:100EF000DDF9B069002D5044A8EB040803DC96F836
:100F000038100A0703D5F16801F80090401CB06161
:100F10000FFA88F08542F068B369B8BFA8460FFAA7
:100F200088F207EB0A01184400F0C0F9B0690FFA23
:100F300088F10844B061681A706280E0BAF1610F0C
:100F400014D14FF0700A16E0A84504DA96F838106C
:100F50000A0758BF45466D1E48BF0025BAF1670F06
:100F600014BF4FF0450A4FF0650A04E0BAF1410F93
:100F700008BF4FF0500AB169F368481CB061002DFA
:100F800017F8012B5A5403DC96F838100A071BD5C2
:100F9000F168431CB36101F80090002D14DDA8F145
:100FA00001080FFA88F08542F068B8BFA8460FFA2A
:100FB00088F23946184400F079F9B0690FFA88F1DF
:100FC00008446D1AB0617562F068B1690844002C7C
:100FD00080F800A003D42B214170811C03E02D2157
:100FE00041706442811C00206A460AE023460A24BC
:100FF00093FBF4F404EB8405A3EB450302F8013BF7
:10100000401C24B2002CF1DC012806DC4AF020024E
:10101000652A04BF302201F8012B48B9302001F8BD
:10102000010B07E0401E1DF80020303201F8012BB3
:101030000028F7DCF068B2691044091AF16196F8EB
:10104000380000F0140010280DD17169B069411802
:10105000706A4118F0694118B06A4118706B81429A
:10106000BCBF411A316204B0BDE8F087F8B505464F
:101070000E4617461C46002074B117F8011BB068D5
:10108000A847B06030B1F06A401CF0620020641ED6
:10109000F3D1F2BD4FF0FF30F2BD00007072696E07
:1010A00074665F733A20256E20646973616C6C6F9F
:1010B000776564007072696E74663A2062616420BC
:1010C000256E20617267756D656E74007072696E51
:1010D00074665F733A2062616420257320617267D1
:1010E000756D656E740000007072696E74665F7372
:1010F0003A2062616420256C7320617267756D65AA
:101100006E74000000000000000000006E616E00C0
:101110004E414E00696E6600494E46003000B1F502
:10112000807F02D34FF0FF3070470170012070477D
:101130000078401E8041C043C00F70471A48704776
:1011400030B45368D418042B09DA41B1057804F897
:10115000015B10F8015B15B15B1C491EF3E753609E
:1011600030BC704738B514461D4661B1FFF7E8FF43
:1011700061686A6B204690476FF00102811A02D0C5
:10118000491E03D005E06FF0010032BD4FF0FF3083
:1011900032BD0021616032BDDA6B1047024BE1E7DE
:1011A000014BF9E701487047F4000020BC00002023
:1011B0000278C9B28A421AB11CBF10F8012FF9E7B0
:1011C00018BF002070470268531C036011707047FD
:1011D00080B500B906A005490B681BB12222002189
:1011E000984701E000F08DFD222002BD5804002048
:1011F000636F6E73747261696E742068616E646C83
:1012000065723A20626164206D6573736167650081
:1012100000F10103810704D010F8011B89B1810797
:10122000FAD10268B2F10131914311F0803F04BF5D
:1012300050F8042FF6E710F8011B11B110F8011B4C
:10124000FBE7C01A70470000C9B2830706D0521EE0
:1012500022D310F8013B9942F7D11FE0083A13D38B
:1012600002F1040241EA012141EA014150F8043B44
:10127000121F21BF4B40A3F1013C2CEA030C1CF0D0
:10128000803FF3D0C9B2001F083210F8013B521E54
:1012900028BF91EA030FF8D818BF0120401E7047FD
:1012A00080B5FFF74BFF006C02BD000062B38B07F7
:1012B00008D0521E11F8013B00F8013B00F02480D9
:1012C0008B07F6D1830740F0208000BF103A07D388
:1012D00030B4B1E83810103AA0E83810F9D230BC78
:1012E000530724BFB1E80810A0E8081044BF51F824
:1012F000043B40F8043BD20724BF31F8022B20F80E
:10130000022B44BF0B7803707047121F17D35B008A
:1013100009D151F8043B20F8023B1B0C121F20F8A6
:10132000023BF6D20BE051F8043B00F8013B1B0AEC
:1013300020F8023B1B0C121F00F8013BF3D238BF10
:10134000121D521E24BF11F8013B00F8013BF8D8D2
:1013500070470000B3BBD9B1B2F5803F7DD2022AFD
:101360001ED98C46B1FBF2F102FB11C31B0443EA08
:101370001043B3FBF2FC02FB1C3380B240EA034390
:10138000B3FBF2F002FB103240EA0C40002370473E
:10139000022A05D98446B0FBF2F002FB10C2704766
:1013A0004AB105D100F0010249085FEA30007047F8
:1013B00000220023704700F0A7BC0B0002000021B0
:1013C00000207047904271EB030CF6D3B3F5803FD9
:1013D0002FD2F0B5B3FA83F7B1FA81F4A7F10F0E6B
:1013E0003D1B5340CEF1200602FA0EF2F34153406A
:1013F000B5F10F0746D80F3C2C444140C4F12006FC
:10140000A040F1414140B1FBF3F603FB1611A2FBF2
:101410000645001BA94102D2761E8018594180EA78
:10142000010221FA0EF362FA0EF200215A40304610
:10143000F0BD30B4B1FBF3FC03FB1C11A2FB0C4567
:10144000001BA94103D2ACF1010C8018594130BCFA
:1014500002460B46604600217047B2F1807F65D39B
:10146000F0B5B2FA82F7B1FA81F4C7F10F063D1B6D
:1014700022FA06F307F1110EF24120355A40B5F178
:101480000F07B8D94140C4F12006A040F1414140C6
:10149000B1FBF3FC03FB1C11A2FB0C45001BA94193
:1014A00003D2BCF1010C801859410F2F12D30F3F0A
:1014B000C90341EA5041B1FBF3F603FB1611A2FB4D
:1014C0000645D4EBC030A94102D2761E801859419E
:1014D00046EACC3C07B34140C7F12006B840F14191
:1014E0004140B1FBF3F603FB1611A2FB0645001BBE
:1014F000A94102D2761E8018594180EA010221FAE0
:101500000EF3C7F1200462FA0EF20CFA07F05A400B
:101510002CFA04F13043F0BD80EA010221FA0EF307
:10152000002162FA0EF260465A40F0BD8C46B1FBD3
:10153000F2F102FB11C31B0243EA1063B3FBF2FC9E
:1015400002FB1C331B024CEA002043EA1063B3FB8E
:10155000F2FC02FB1C331B024CEA002043EA10633E
:10156000B3FBF2FC02FB1C331B024CEA002043EAF3
:101570001063B3FBF2FC02FB1C324CEA0020002398
:1015800070470000B0B581EA030C0CF0004C40F24B
:10159000FF7515EA11541DBF15EA1357AC42AF424F
:1015A00039E0E41923EA455343F48013C90241F0BA
:1015B000004141EA505EC7021100A7FB0202002869
:1015C0004FF00000EEFB01204FF00001E3FB07218C
:1015D00018BF42F00102401800214941E3FB0E010F
:1015E000A4F580640F0302D252004041494154F1F6
:1015F00001046CDD470872F1004250F1000051EB2C
:101600000451A1F580115CBF41EA0C01B0BD4CEA68
:1016100005510020B0BD05EA1357AC4214BFAF42DC
:1016200041E050EA410E1CBF52EA430E02E061461F
:101630000020B0BD24423C441BD15FEA070EF6D027
:10164000090302BF01460020AEF1140EB1FA81F782
:10165000AEEB070401FA07FE0C37C7F1200100FAD0
:1016600007F7C8404EEA000E23EA455343F48013BF
:10167000A2E733F00043B3FA83F704BFB2FA82FE65
:1016800077440B3FE41BB7F1200E2FBF02FA0EF395
:10169000BB40C7F1200E22FA0EFE38BF43EA0E030C
:1016A000BA40641C82E750EA410E14BF52EA430E6E
:1016B0006FF000014FF4001717EB430F8ABF194674
:1016C00017EB410FB5E74CEA05510020B0BDD4F14E
:1016D0000104B4F120070FDAC4F12007520828BF33
:1016E00042F0010210FA07F501FA07F7E1BF2A43B9
:1016F000E0403843E1400FE0352C98DCC7F120048E
:1017000052EA400220FA07F218BF42F0010231FA11
:1017100007F0A1400A43002172F1004250F100009D
:1017200051EB0C01B0BD000010B5144600F002F8FA
:10173000226010BDC1F30A5343B14A0012F5001FE5
:1017400028D2A3F2FE32A1EB0251704750EA410CBD
:1017500020D001F0004C31EA0C01B1FA81F204BF53
:10176000B0FA80F3D2180B3AB2F120032CBF00FA82
:1017700003F1914041EA0C013EBFC2F1200C20FA76
:101780000CF319439040524240F2FD33D21A01EB60
:1017900003517047002270474FF4001C1CEB410FAF
:1017A00094BF1CEB430F09E041EA030C50EA4C0CD8
:1017B00052EA0C0C03D2994208BF9042704714BF02
:1017C0008B428242704700004FF4001C1CEB410F1B
:1017D00094BF1CEB430F09E041EA030C50EA4C0CA8
:1017E00052EA0C0C03D28B4208BF8242704714BFEE
:1017F0009942904270470000124254D440F2FF7C5C
:101800001CEA11530FD0634531D09B1863453CBF90
:1018100001EB0251704701F0004141EA0C510020F8
:10182000AFF30080704750EA410320D001F0004C34
:1018300091EA0C011CD0B1FA81F30B3B9A420DD90D
:10184000D21A994051EA0C01C3F1200C20FA0CFC89
:1018500061449840531C40F2FF7CD7E7914041EA35
:101860000C01C2F1200C20FA0CF319439040704790
:10187000B0FA80F31533202BE0D3202AEED3203AA0
:10188000203B9A4209D9D21A00FA03F141EA0C012D
:101890000020531C40F2FF7CB8E700FA02F141EA55
:1018A0000C0100207047524240F2FF7C1CEA1153A9
:1018B0000DD06345DBD0B2EB030C3CBFA1EB025172
:1018C00070470CF1010221EA035141F4801150EA02
:1018D000410CCCD001F0004C352A27DC30B481EA31
:1018E0000C01B2F1200309DAC2F12003044601FA27
:1018F00003F5D0402843D1409C400CE0C3F12002C6
:10190000450020FA03F418BF44F0010421FA03F063
:1019100091400C43002174F1004550F1000051EB5F
:101920000C01244230BC7FF47BAF7047614600203D
:1019300076E70000C1F30A5340F2FE329B1A14DD31
:10194000D3F120034FEAE17208DDC90241EA5051A8
:1019500041F00040D84080185040704703F2E13019
:1019600010B1D24382F00040704700207047000061
:10197000C11768B14840401AB0FA80F29040D21CBA
:10198000C907C2F5846241EA025202EBD021400548
:101990007047000070B44FF0004591EA030F40F12A
:1019A000B5816B40841A71EB030603D2001BB14171
:1019B000121973414FF4001C1CEB410F34BF7CEB38
:1019C000430442E00C0DA4EB1356352E4FDC45EAE0
:1019D000C323DB0A45EAC121C912B6F120050DDD9A
:1019E00063FA05F6EB4086EA0305124218BF45F09C
:1019F0000105C01851F100010CD213E062FA06F59E
:101A0000F2405540F3415A40B340F3405A408018E9
:101A1000594107D349085FEA30005FEA350528BF1E
:101A200045F0010501F58011420875F1004250F1C1
:101A3000000041EB04514E0016F5001F70BC38BF8A
:101A400070470020090D090570471CEB410F10D2AB
:101A500052EA43060BD0BCEB410F05D80C0DAB434B
:101A6000661E342EB6DD02E0AB438018594170BCCF
:101A7000704770BC70470000F0B540F2FF7581EA16
:101A8000030C0CF0004C15EA11541DBF15EA135756
:101A9000AC42AF42E5E0BC41C1F31301C3F3130311
:101AA000801A994143F4801304D2641E40004941D6
:101AB00080185941C90241EA5051B1FBF3F603FBCA
:101AC0001611A2FB0675D7EBC020A94102D2761EE3
:101AD00080185941C90241EA5051B1FBF3FE03FBA2
:101AE0001E11A2FB0E75D7EBC020A94103D2AEF1A7
:101AF000010E80185941890241EA9051760546EA63
:101B00008E2EB1FBF3F603FB1611A2FB0675D7EB85
:101B10008020A94102D2761E80185941C90241EAAB
:101B200050514EEA060EB1FBF3F603FB1611A2FB71
:101B30000675D7EBC020A94102D2761E8018594104
:101B4000C90241EA5051B1FBF3F703FB1711A2FBA5
:101B50000735D3EBC020A94167F100070CBF004255
:101B600047F0010766F3D5274FEA1E31B80814F590
:101B7000806412DDBD0775F1004250EB0E5051EB51
:101B8000045111F5801F5CBF41EA0C01F0BD4CF01F
:101B90007F6141F0E0410020F0BDBD076D0840EAE3
:101BA0000E5041F48011D4F10104B4F120060ADA98
:101BB000C4F120060200E04001FA06F3E1401843B8
:101BC000B24015430EE0342C13DCC6F1200445EA84
:101BD00040056D0820FA06F2154321FA06F0A140EF
:101BE0000D43002175F1004250F1000051EB0C0152
:101BF000F0BD00205FEA0C01F0BDCFB992185B4147
:101C0000B3FA83F704BFB2FA82F6BF190B3FB7F1FC
:101C100020062FBF02FA06F3BB40C7F1200622FAC6
:101C200006F638BF3343BA401CB1E419641E33E7EB
:101C30007F4231F00041B1FA81F404BFB0FA80F67E
:101C4000A4190B3CB4F120062FBF00FA06F1A14005
:101C5000C4F1200620FA06F638BF3143A0403C1BF1
:101C60001AE7AC421ABF05EA1357AF4212E050EA36
:101C700041061CBF52EA4306BFE750EA410730461F
:101C800061461CBF41EA0551F0BD52EA430C08BF52
:101C9000C143F0BD00204FF4001616EB410F98BF72
:101CA00016EB430F08BF16EB410F24BFC14305E0FD
:101CB00016EB430F0CBF61464CEA0551F0BD000026
:101CC000400D491840EA81200CD2490DA1F58061F0
:101CD000491C40F0004005DBD1F11F0154BFC84052
:101CE000C017704700207047014648B1B0FA80F134
:101CF0008840C91CC1F58461090501EBD02140056C
:101D00007047012000F0B6B870470000841A71EBEC
:101D1000030604D26E40001BB141121973414FF407
:101D2000001C1CEB410F34BF7CEB430682E00C0D22
:101D3000A4EB1356362E7BDC012E45EAC32341DC8F
:101D400043EA525312BFD20292025B08240545EACD
:101D5000C12141EA5051D2EBC020994125D407D18D
:101D6000B0FA80F610FA06F162D00020203608E0C2
:101D7000B1FA81F6B140C6F1200220FA02F2114315
:101D8000B0404FEAF474B4EB465434F001064FEA25
:101D900074040AD8D6F50016760D04F00044F0401D
:101DA00061FA06F25040F1404840C00A40EA415012
:101DB00021F0004128BF5FEA500550F1000044EBDC
:101DC000D12135E0DB0A45EAC121C90AB6F1200577
:101DD0000EDD42EA0242120CC5F1200603FA06F6B5
:101DE000EB4042EA06056D42984161F100010DE0C9
:101DF00062FA06F5F240554063FA06FC82EA0C02EC
:101E0000F3405A406D42904161EB030111F4801F91
:101E100005D1641E620502D06D004041494121F4A4
:101E20008011430875F1004350F1000041EB04516B
:101E300070BC70471CEB410F15D223F0004352EAEF
:101E400043060BD04FEA4C0CBCEB410F04D80C0DF1
:101E5000661E342EB7DDEBE7801A994150EA410641
:101E600008BF0021E4E708BF1CEB430F28BF6FF059
:101E70000001DDE780B5AFF30080024A11001820B1
:101E8000ABBEFBE72600020038B5040001D10120FB
:101E900032BD04F13405287820B90021217720468D
:101EA00000F041FC03202870204600F007F80020D5
:101EB0006860206301202870002032BD30B589B0F1
:101EC0000446002076250390049005900690079024
:101ED000089503A983B068461822FFF7F7F90EBCEE
:101EE0002068DFF8C05100F0A1FD002129602068C2
:101EF00000F0B7FD0120286004F13405022000F055
:101F0000FFFF204600F031FB18B9204600F0C3FA6D
:101F100028B101212970696808436860012009B06F
:101F200030BD6946206800F0C0BD7CB5044604F1B0
:101F3000340521685C484A6BD3053AD54FF4807369
:101F400000F0BAF80107206B1AD5810702D4216B83
:101F5000880604D500F052FA08B100F0B4F8216800
:101F600040F2FF50886301202870206BC10702D423
:101F7000206B810718D52046BDE8764000F0D4BF1D
:101F800001062AD5206B810604D500F037FA08B186
:101F900000F099F8206BC1071FD4206B81071CD477
:101FA00000F026FA012028702046BDE8764000F0B7
:101FB000BCBF4A6B530411D54FF4804088630025A1
:101FC000266A206806EB850100F046FD6D1C082D91
:101FD000F7D3206A00F12001216273BD4A6B13041C
:101FE00011D54FF4004088630025A66A206800F0F0
:101FF00032FD46F825006D1C082DF7D3A06A00F1CC
:102000002001A16273BD4A6B40F23A231A4246D0C6
:102010004A6B930703D56A6842F002026A604A6B12
:10202000130700F043F84A6B930603D56A6842F041
:1020300020026A604A6BD30603D56A6842F0100238
:102040006A604A6B930500F031F840F2FF7300F0CC
:1020500033F8010619D5E86830B100F0C3F9F0B1E2
:10206000E868BDE87640D3E1A86830B100F0B4F983
:10207000A8B1A868BDE87640E6E168600120287054
:102080002046BDE8764000F051BF206B010706D521
:10209000012129702046BDE8764000F048BF73BD9D
:1020A00000000000A0802542C5FCFFFF03D56A6840
:1020B00042F008026A6070478B632168CA6B104067
:1020C000C863206B7047696808436860204600F069
:1020D0002EBF78B500F134031A6B120E94090C7000
:1020E000C2F383044C7002F003028A701A6B120C64
:1020F000CA701A6B120A0A711A6B4A715A6B120E65
:102100001401CC805A6BCC88C2F3074244EA121403
:10211000CC8002F00F020A724FF400745A6BC2F3C3
:102120000725EA094A72C5F380128A72C5F3401284
:10213000CA72C5F300120A7300224A731A69002A90
:1021400040F08580AD0205F440650D610126086907
:1021500093F8342040EA82000861986B0A69000E07
:1021600042EA90120A61C0F3C2020A7500F0070049
:102170004875986B0002000E42098A75C0F382020E
:102180004000CA7500F0060008769A6B087E1204BB
:10219000120E40EAD21008760D696D1C1D62087E91
:1021A000801C06FA00F045431D62087A86405E6294
:1021B000760A75439D62DC62C2F380104876500057
:1021C00000F07E00887693F838008A7E42EAD012CA
:1021D0008A7600F07F00C876D86B000EC2090A77B5
:1021E000C0F341124A77C0F3820280008A7700F080
:1021F0000C00C877D86BCA7F0002000E42EA90122A
:10220000CA77C0F3401281F8202000F001000022BC
:1022100001F8212F4870D86B0004000EC2098A70A3
:10222000C0F38012CA70C0F340120A71C0F30012EA
:102230004A71C0F381028A7100F00300C871012263
:1022400093F83C00400808724A72002072BD012ACF
:102250001AD1586B000400F47C10086108699A6B6D
:10226000120E40EA0220086108699A6B120240EAE5
:10227000126008619A6B08695C62401C120480025B
:10228000120E1862986296E7006840F2FF5181636F
:102290000120596841F080515960187072BD2DE9D4
:1022A000F841074607F1340489B0032020700E4638
:1022B0002069032818BFB6F5805F4DD0B6F5006FD2
:1022C0004FF080654FF400681ED100200021CDE959
:1022D0000001386800F0DFFB810148BF454633D478
:1022E0006946384600F08BF9F0B9019841032BD5C7
:1022F00000F05AF8050027D13868022100F090FC60
:10230000050021D100251FE016BB0022CDE90012F7
:10231000386800F0C0FB800148BF454614D46946C8
:10232000384600F06CF908B105460DE00198C1038C
:102330000AD500F039F8050006D13868002100F010
:102340006FFC050008BF002560680543656007E075
:10235000606840F0006002E0606840F080506060BB
:102360003D68606828B140F2FF51A96301202070E8
:1023700017E0786803901822B968049103A9F868F7
:102380000590069678690790BE69089683B06846FE
:10239000FEF79CFF0EBC284600F048FB0120207091
:1023A00000200AB0BDE8F081E1693868090400F056
:1023B00022BC38B504460025216D2068090400F0D0
:1023C000A8FC18B1A16B0843A06302E000F0C9F8B3
:1023D000450A05F00F0032BD0FF26D010165A868D6
:1023E00000F04EBE0FF229010165E86800F048BE1A
:1023F0002068C16A21F00801C1627047206800F0BE
:102400007FBBBDE8324000F092BD2046D1E700001E
:1024100038B5846B04F13405E86808B10021E9603F
:10242000A86880B9FFF7F1FF002169600121062843
:1024300018BF0528297006D1FFF7E0FF00F020F84B
:1024400000D024E0DDE731BD38B5846B04F13405FC
:10245000A86808B10021A960E86880B9FFF7D5FF36
:10246000002169600121062818BF0528297006D1BE
:10247000FFF7C4FF00F004F800D008E0C1E731BD69
:102480006968084368606868002820467047BDE8AE
:10249000324000F04BBD18B58FB004460121ADF8B5
:1024A0000C10206800F0E2FA10B94FF0806052E0A2
:1024B000606C032835D0206800F0C3FB00284AD1A7
:1024C00000F04FF8606700F048F8A067082100F0BE
:1024D00045F8E0670C2100F041F8C4F88000606C1A
:1024E00003281ED0206803A900F0CCFB002832D1BD
:1024F000606C032815D0BDF80C1021650904206814
:1025000000F0B0FB38BB00F02CF8606600F025F856
:10251000A066082100F022F8E0660C2100F01EF809
:10252000206700F01AF8000DE06404A92046FFF7C8
:10253000D0FD226D20681204002300F0F7FA50B994
:1025400083B0211D68461822FEF7C0FE0EBC20682D
:1025500000F06CFA002010B010BD0421206800F0DB
:102560009ABA2068002100F096BA38B504460021D6
:102570000091206800F0F0FA002839D1206800F0BE
:102580000AFB4FF6FF75B0B10020A0640098411C13
:10259000A84200912DD02068002100F02CFB58BBF0
:1025A0002068002100F031FB30BBFFF7DAFFC00FDD
:1025B000ECD000201AE00120A0640098411CA84241
:1025C000009116D02068002100F015FB80B920682A
:1025D0004FF0804100F019FB50B9FFF7C2FF0146F0
:1025E000C00FEAD011F0804018BF012060640020C5
:1025F00032BD4FF0807032BD4FF0805032BDF8B523
:1026000088B004460D46002700F04EFECDE9007765
:1026100006462068082100F05DFA002851D100F03C
:102620005CF800284DD1082103914FF0FF30029053
:10263000022105913020049001210697079102A9FB
:10264000FFF770FC206800F0EDFA00283BD038E07E
:102650008A0204D500F0FFF94DF827007F1C00F036
:1026600023FE801B10F1010F2DD14FF0004028E018
:10267000416B8A0748BF02222CD4416B8A0648BFAF
:10268000202227D440F2FF5181630098010201F417
:102690007F0141EA0061000A00F47F400143009895
:1026A00041EA106169600198010201F47F01020AA8
:1026B00041EA006102F47F42114341EA106129605E
:1026C000002009B0F0BD00F00DF8416BC0D00A0742
:1026D000CED5082282631046F3E7216D20680904F5
:1026E00000F089BA2068416B40F22A4211427047DB
:1026F00081B0002000900022DFF8E802416841F438
:1027000080414160416801F480410091009900924C
:10271000036843F080530360006800F0805000902D
:10272000009801B070472DE9F84F86B000F0F2F83C
:102730002168AD4A914267D100F0E7F8AB4F41699B
:1027400041F4006141614FF00065416901F40061AD
:1027500000914FF48066009900924FF4805B03680B
:1027600043F0040303604FF48048016801F0040162
:1027700000914FF40009009900924FF4F85103685A
:1027800043F0080303600222006800F00800009094
:102790004FF4001A00F0B3F80C2000F0ABF89448A6
:1027A00000F088FD04200190022100200291039096
:1027B00003210C200491059001A98E4800F07AFDB8
:1027C0008D4838607D600020B86000F020F808B1C6
:1027D00000F0E0FFE763BC63884F874800F14801E1
:1027E00039607D604021B960002000F010F808B128
:1027F00000F0D0FF2764BC6300220021312001F0EB
:102800003FF8312001F059F807B0BDE8F08FF860CB
:102810003E61C7F814B0C7F818802020F861002086
:102820003862042078620320B862C7F82C90C7F899
:1028300030A0384600F07CBBF8B586B000F06AF8EE
:1028400021686F4A91424CD100F05FF86D4E0169EA
:102850006D4D41F4004101614FF48067016901F45D
:1028600000410091009900923821036843F002036F
:1028700003600222006800F00200009000F03FF8C0
:10288000062000F037F8614800F014FD0020706069
:10289000B06000F028F835603761304600F048FB42
:1028A00008B100F077FFE664B46305F17800584E94
:1028B00030600020706037614020B060002000F080
:1028C00012F8304600F034FB08B100F063FFA66454
:1028D000B46300220021332000F0D2FF332000F047
:1028E000ECFF07B0F0BDF0607061B061F061306284
:1028F0007062704704910590029201A97047009898
:1029000001910020039003217047002000900022D5
:1029100040487047044601A8142100F0F9BF2DE992
:10292000F04186B0FFF7F6FF21683B4A91424BD158
:10293000FFF7EBFF394F4169DFF8E48041F0100108
:1029400041614FF00066416901F0100100914FF4C0
:102950008065009900924FF4C061036843F0010361
:1029600003600222006800F00100009000980191CD
:102970000120039003210720FFF7BCFF294800F046
:1029800099FC0020C7F800807E60B86000F01FF856
:1029900008B100F0FFFE6763BC6308F17800224FC6
:1029A00038604020B8607E60002000F010F808B168
:1029B00000F0F0FE2763BC6300220021252000F018
:1029C0005FFF252000F079FF06B0BDE8F081F860D8
:1029D0003D617861B861F86138627862384600F02C
:1029E000A7BA000040380240002C01401802002025
:1029F00000080240000C02405864024078020020A7
:102A0000003C0040D8020020106002400004024058
:102A100038030020303802400010014098030020A5
:102A20004064024000000240F80300200EB44368F6
:102A3000DFF8A814009A0B4001991343029A0B4344
:102A400003991343049A0B43059913430B434360C3
:102A5000002003B070473AE00968C0F880100020F9
:102A600070470321FFE7016000207047006800F015
:102A70000300704710B50A688260C3680C694A6831
:102A800014438A68C96814431B0B0C4344EA03339C
:102A9000C360002010BD81B00022143000920918DC
:102AA00000910098006801B070470A6842624A6865
:102AB0008262C36A8A6823F0F7031343CA68134328
:102AC0000A69496913430B43C36200207047D0F879
:102AD0008000704718B585B00446102000F004F857
:102AE00041F2883210212DE1009101904021002017
:102AF000029103904FF48062049269462046B9E740
:102B000018B585B000F099F80C2100F004F8DFF852
:102B1000D0230C2116E140200191029000214FF4B6
:102B200080600391049069462046A3E718B50446E7
:102B300085B007200190009200F006F8FFF7F3FF40
:102B400041F288320721FDE04021002002910390EC
:102B50004FF480620492704718B585B000F06DF8AC
:102B600001900290039069464FF4806004902046E3
:102B7000FFF780FF00F033F80846411E40B1606B5C
:102B80000206F9D540F2FF51A163002006B010BD46
:102B90004FF00040FAE718B585B004464FF4D57001
:102BA00000900821FFF7B7FF00F019F80846411E12
:102BB00050B1606B10F0450FF8D0606B410706D53F
:102BC0004021A163042008E04FF0004005E0606B65
:102BD000410644BF4021A163002006B010BDDFF8CC
:102BE00004030168C9084FF47A72B1FBF2F141F2B3
:102BF00088304143704718B585B004463720FFF749
:102C000073FF41F2883237219CE018B5044685B045
:102C1000B548014300914020292100F01BF882E0D3
:102C200018B587E018B585B000F007F83321FFF735
:102C300072FF41F28832332184E004460020009084
:102C4000704718B585B0FFF7F8FF0221C02000F0EB
:102C500001F810E00191029000214FF4806003918F
:102C60000490704718B585B0044609200091019082
:102C7000C021FFF76AFFFFF756FF204600F0F3F888
:102C800006B010BD30B585B00546002000900C465A
:102C900003214020FFF7DEFF69462846FFF7EAFEE2
:102CA000FFF79DFF0846411E40B1686B10F0450FCD
:102CB000F8D0686B410704D5042106E04FF00040CE
:102CC00025E0686BC10703D50121A96308461EE012
:102CD0002869C0B2032818BF012018D140F2FF5163
:102CE000A96328460021FFF7D6FE10F4604F03D1F8
:102CF000000C208000200AE0410448BF4FF400503F
:102D000005D400044CBF4FF480504FF4803005B020
:102D100030BD18B585B004460D20FFF7E5FE41F241
:102D200088320D210EE0FFF7FEFE204600F0BAF8D3
:102D300006B010BD85B004460620FFF7D5FE41F26F
:102D400088320621204600F002F806B010BD38B5E2
:102D5000644C25680346ED084FF47A70B5FBF0F03B
:102D600042431046421E40B1586B10F0450FF8D058
:102D7000586B420704D5042106E04FF0004032BDF5
:102D8000586BC20703D501219963084632BD186903
:102D9000C0B2884201D0012032BD40F2FF5098639A
:102DA00000211846FFF777FE5049084201D1002064
:102DB00032BD02D54FF0007032BD410001D5402038
:102DC00032BD810001D5802032BDC10002D54FF453
:102DD000807032BD010102D54FF4007032BD410157
:102DE00002D54FF4806032BDC10102D54FF40060BE
:102DF00032BD010202D54FF4805032BD410202D5EE
:102E00004FF4005032BD810202D54FF4804032BDF4
:102E1000C10202D54FF4004032BD410302D54FF448
:102E2000003032BD810302D54FF4802032BDC10392
:102E300002D54FF4002032BD010402D54FF48010BA
:102E400032BD410402D54FF4001032BD810402D5D9
:102E50004FF4800032BD000702D54FF4000032BDB0
:102E60004FF4803032BD1F490A68D2084FF47A739C
:102E7000B2FBF3F241F288314A4311464A1E41B196
:102E8000416B11F0450FF8D0416B4A0702D504227F
:102E900004E02DE0416BCA0703D50122826310468E
:102EA000704728E00F490A68D2084FF47A73B2FBE2
:102EB000F3F241F288314A4311464A1E51B1416B47
:102EC00011F0450FF8D0416B4A0704D50422826304
:102ED000042070470CE00EE0000000000081FFFFBE
:102EE00000E1F505B80000200000108008E0FFFDBB
:102EF0004FF00040704740F2FF518163002070475F
:102F000038B5044600F0D0F914F1010F054602D09F
:102F100004480178641800F0C7F9401BA042FAD3B6
:102F200031BD00BFAC00002070477047704770474C
:102F30007CB5044600F0B8F906460CB9012076BD10
:102F400004F13405002028700220687000F079F93F
:102F500021680868C20720D500F0A6F9801B062862
:102F6000F6D320202862032015E0B0F5005F09D1D8
:102F7000032E42D8DFE806F00C0A0C02B1F1C07F44
:102F80003BD105E0022E03D9F61E36D1C80134D557
:102F9000402028620120687076BD0A68DFF8900240
:102FA000024060680243A0680243E068024320696F
:102FB000024360690243A0690243E0690243206A58
:102FC0000243606A042803D1E36A206B03431A4377
:102FD0000A6023685A69606AD208042840EAC2027B
:102FE0000BD1A66AE16A324339B1A0690028BCD18D
:102FF000002E18BF022EC9D0C0D35A61204600F05F
:103000003BF9A96A3F228A408260002028620120A1
:103010006870002076BDF8B5044604F1340600253A
:103020003078776A012801D10220F2BD012030708A
:103030007078012820D1022070703562204600F09F
:103040000BF9B06A3F218140B9602068016841F006
:10305000160101602068416941F080014161F0681A
:1030600020B12068016841F0080101602068026811
:1030700042F00102026001E0357002252846F2BDEF
:1030800090F83510022903D0802242650120704754
:10309000052180F835100068016849084900016081
:1030A000002070472DE9FC41044604F1340600205D
:1030B000604900904FF41650776A0A683D68B2FB89
:1030C000F0F8B06A082100F0B8F80ED02068026865
:1030D00053070AD5036823F004030360B06A8140F4
:1030E000B960306A40F001003062B06A25FA00F140
:1030F000C9070BD521684A69110607D5012101FAD4
:1031000000F0B860306A40F002003062042100F044
:1031100093F808D021680A68930704D5B860306A2C
:1031200040F004003062102100F086F81BD02168C6
:103130000A68130717D5B860206801684A0307D5E5
:10314000006801030BD5716969B1204688470AE020
:103150000168CA0503D4026822F008020260F1681F
:1031600009B120468847B06A202100F066F841D0B6
:1031700021680A68D3063DD5B860206871780529B2
:1031800020D1026822F0160202602068416921F015
:1031900080014161F168002904BF7069002804D0F2
:1031A0002068016821F0080101603F22B06A824076
:1031B000BA6000F04CF8F169002935D02046BDE82E
:1031C000FC41084701684A0307D5006801030DD494
:1031D000316979B1204688470CE00168CA0505D4F9
:1031E000026822F01002026000F031F8B16809B103
:1031F00020468847306AB8B1316AC8070ED5052025
:10320000707000F01EF820680099491C88450091F4
:1032100002D30168CA07F7D400F019F8B16919B1EF
:103220002046BDE8FC410847BDE8F38100000000EE
:103230003F8010F0B8000020B06A01FA00F00542AB
:103240007047206801684908490001607047002004
:10325000307001207070704738B50468256825F417
:103260008025256063608068402802D1A260E1600B
:1032700031BDA160E26031BD81B0016801F0FF02A3
:10328000103A1823B2FBF3F205A39B5CC365890ACD
:103290008902042A28BF091D8165084601B07047CC
:1032A000000610160006101601484068704700BF5F
:1032B000AC0000202DE9F84F4FF0000E6A4A6B4B2E
:1032C000DFF8AC814FF00F0906468A460121DAF893
:1032D000004001FA0EF10C408C4240F0BC80DAF85C
:1032E0000450022D18BF122D4FEA8E0012D14FEA62
:1032F000DE0506EB850C00F01C05DCF8207009FAF1
:1033000005FB27EA0B07DAF810B00BFA05F53D4389
:10331000CCF820504FEA4E0C032537689AF804B0D9
:1033200005FA0CF5ED430BF0030B2F400BFA0CFBE9
:103330004BEA07073760DAF80470012F18BF022F35
:1033400003D0112F18BF122F13D1B768DAF80CB0C1
:103350002F400BFA0CFB4BEA0707B760776827EAA8
:103360000101DAF80470C7F3001707FA0EF73943C2
:103370007160F1680D40DAF8081001FA0CF1294388
:10338000F160DAF80410C90065D50025009500F059
:103390000C00D8F8001041F48041C8F8001009FA78
:1033A00000F7D8F8005005F48045009500994FEAE1
:1033B0009E0153F8215025EA07072E4DAE4208BF63
:1033C000002522D02C4DAE4208BF01251DD02B4D2B
:1033D000AE4208BF022518D0294DAE4208BF0325D2
:1033E00013D0284DAE4208BF04250ED0264DAE4264
:1033F00008BF052509D0254DAE4208BF062504D0DB
:10340000234DAE420CBF0725082505FA00F03843CE
:1034100043F82100E0431168DAF804500140ED035D
:1034200048BF214311605168DAF804500140AD03F0
:1034300048BF214351609168DAF804500140ED0221
:1034400048BF21439160D1680140DAF8040080024E
:1034500048BF2143D1600EF1010EBEF10F0F7FF680
:1034600035AFBDE8F18F0000003C01400838014055
:1034700044380240000002400004024000080240BC
:10348000000C0240001002400014024000180240EC
:10349000001C0240B64901200870704710B5B44CBA
:1034A0000A4621780029FDD0002121700146201D07
:1034B00000F06EFA20780028FDD010BD10B5AC4C9D
:1034C000012204F14401201D00F062FA04F14401DC
:1034D000201DBDE81040012200F096BA10B500F0A2
:1034E000B3FD0246DFF88842ABA100F025F800F0FA
:1034F000EEF800F0F0F800F088FD0246ADA100F013
:103500001BF800F0E4F800F0E6F800F086FD024653
:10351000AFA100F011F800F0DAF800F0DCF89548FF
:10352000B2A1026800F008F800F0D1F8C1B204F1CD
:103530004800BDE81040B1E704F1480000F0B0BD1C
:103540001CB500F0CDFD00F0CAF8002000908A4CB8
:103550008A48016841F004010160026802F0040237
:103560000092002200990092036843F00103036077
:10357000016801F0010100F0A5F843F008030360C1
:10358000016801F0080100F09DF843F002030360B8
:10359000016801F0020100F095F843F400130360A4
:1035A000016801F400110091009900920021036864
:1035B00043F480030360006800F4800000900098EA
:1035C0000B2000F05DF90B2000F077F900220021BC
:1035D000102000F055F9102000F06FF900220021B2
:1035E0003A2000F04DF93A2000F067F9002200215E
:1035F0003B2000F045F93B2000F05FF9002200215C
:10360000452000F03DF9452000F057F90022002147
:10361000462000F035F9462000F04FF95848206068
:103620004FF4827060600020A060E06002202061A2
:10363000012060614FF40070A0610020E061206211
:103640006062A0620A20E062204600F063FD4D48FF
:10365000A0650020E06520666066A066E0662067E1
:1036600004F15800FEF710FC4FF4006104F158001B
:10367000FEF715FE3E4C444860604FF4E130A06018
:103680000020E060206160610C20A0610020E0610A
:103690002062201D00F040F9012204F14401201DA8
:1036A00000F0B2F9FFF71AFF0FF290130FF2801239
:1036B00055A104F1480000F0F3FC00F008F800F018
:1036C0000AF8FEE70091009900920368704704F140
:1036D0004800FDF79DBDC1B204F14800DEE680B5AB
:1036E00092B006A8302100F013F901A8142100F0CF
:1036F0000FF9002000902548016841F080510160D9
:103700000021006800F0805000900098204800914F
:103710000221026842F4804202600122006800F443
:10372000804000900098069110200A900C91002093
:103730000D900821A8200F900E91072002211190D2
:103740000992109106A800F0A7FD0F200190022118
:103750000020029103904FF4A0514FF48050049147
:103760000590052101A800F0CBFB13B000BD0000BF
:1037700000000020B80000203C010020303802404A
:10378000003C0040002C0140001001404038024045
:1037900000700040704700000A535953434C4B5F80
:1037A0004672657175656E6379206973202564487A
:1037B0005A0000000A50434C4B315F4672657175E8
:1037C000656E6379206973202564485A0000000003
:1037D0000A50434C4B325F4672657175656E637972
:1037E000206973202564485A000000000A53797349
:1037F00074656D436F7265436C6F636B20697320F2
:103800002564485A0A0000006275696C642064618E
:103810007465203A2025730D0A6275696C64207402
:10382000696D65203A20202573200D0A00000000F4
:103830004A616E20313720323031390031343A3329
:10384000383A3031000000000901020081B006D58D
:10385000294A00F00F00104400F8041C01E0274B37
:10386000195401B07047264A13684FF6FF01000251
:103870000B4000F4E0601843224908431060704791
:1038800038B51F4B1C68C4F30223C3F10704052C91
:1038900028BF04241D1D072D34BF0023DB1E012576
:1038A00005FA04F4641E2140994005FA03F35B1EF7
:1038B0001A401143BDE83440C6E7012200F01F0161
:1038C000114BFFE78A40400943F82020704710B5AC
:1038D000401EB0F1807F01D3012010BD0B4C606011
:1038E0000F214FF0FF30FFF7AFFF0022A26007204B
:1038F0002060002010BD000018ED00E000E400E0B2
:103900000CED00E00000FA0500E100E010E000E04E
:10391000002200F039BE000038B5040001D10120BA
:1039200032BD00F022F808B900F023F800F013F8D7
:1039300000F024F8FFE7416100F001F832BD206893
:10394000C16841F40051C1600020686020206870A7
:10395000A87000207047242068702068C16821F496
:103960000051C160204600F009BA04F138056878BA
:103970007047002129702046FEF7D1BF20680169F9
:1039800021F4904101612068416921F02A017047CA
:1039900070B5044604F1380513466878202831D103
:1039A00009B1180001D1012070BD2878012829D063
:1039B00001222A702162A384E38400206860212010
:1039C0006870226B0FF23120D063226B0FF255200A
:1039D0001064226B0FF29520D0640020266B3065B6
:1039E0002068021D206BFFF716FB21686FF0400076
:1039F0000860002028702068416941F08001416121
:103A0000002070BD022070BD38B5044604F13805B1
:103A10001346A87820283ED109B1180001D1012011
:103A200032BD2878012836D001222A70A162A385F0
:103A3000002068602220A870626B0FF2F110D06342
:103A4000626B0FF221201064626B0FF22120D064B0
:103A50000020626B10650A462068011D606BFFF74D
:103A6000DAFA002000902068016800914268009214
:103A7000002200992A70C26842F48072C2602068F5
:103A8000416941F0010141612068416941F0400113
:103A90004161002032BD022032BD416921F0400168
:103AA0004161606B704738B5044625682968EA684B
:103AB0006B6911F00F0007D188065DD590065BD5C4
:103AC0002046BDE8324013E1D80702D412F4907FBB
:103AD00052D0C80705D5D00503D5E06B40F00100F2
:103AE000E063480705D5D80703D5E06B40F0020036
:103AF000E063880705D5D80703D5E06B40F00400E4
:103B0000E063080705D5D80703D5E06B40F008004F
:103B1000E063E06B00286ED0890604D5900644BFB0
:103B2000204600F0E5F820684069E16B0A0701D4FF
:103B300040061BD5204600F0C7F8206841694A06B8
:103B40000FD5FFF7AAFF60B10FF299110165606B05
:103B5000FFF796FA00284ED0606B016DBDE8344047
:103B600008472046BDE8324000F027BD204600F05F
:103B700024FD0020E06331BD08062CD510062AD5AF
:103B800094F83900212836D1A168206AB1F5805F08
:103B90000DD10188C1F308016960206918B9216A53
:103BA000881C206207E0206A411C216203E0411C5E
:103BB000216200786860E08C401EE08480B2D0B959
:103BC0002068C16821F08001C1602068C16841F0AF
:103BD0004001C16031BD48060DD550060BD5E868DF
:103BE00020F04000E860202184F839102046BDE82C
:103BF0003240FFF74FBC31BD816B00680268D305CE
:103C000044BF0846FFF746BC0020C88408684269E4
:103C100022F0800242610868C16841F04001C16041
:103C200070470000806B00F0C9BC0000816B006829
:103C30000268D30513D40020C8850868C26822F43E
:103C40008072C26008684269520852004261086886
:103C5000426922F040024261202081F83A00084681
:103C6000FFF72CBC806B00F0AABC000038B5846B59
:103C70002068406904F139052978212906D1000618
:103C800004D50020E084204600F015F82068406943
:103C90006978222906D1400604D50020E085204617
:103CA00000F012F8E06B40F01000E0632046BDE841
:103CB000324000F082BC0168CA6822F0C002CA60CB
:103CC000202180F8391070470168CA6822F4907288
:103CD000CA6001684A69520852004A61202180F88E
:103CE0003A107047806B0021C185C18400F065BC2B
:103CF00080B590F83A1022293ED18268B2F5805FF3
:103D000014D1826A016941B903685968C1F3080195
:103D10001180826A911C816218E001684B6803F08F
:103D2000FF031380816A4A1C82620FE00169002947
:103D3000816A04D14A1C82620268536805E04A1C09
:103D400082620268536803F07F030B70C18D491EC5
:103D5000C18589B271B90168CA6822F49072CA60DB
:103D600001684A69520852004A61202180F83A10DD
:103D7000FFF7A4FB002002BD022002BD2DE9F047A1
:103D80000446642521680A69E06822F4405202432F
:103D90000A611926CA6848480240A068024320699F
:103DA000024360690243E0690243CA604A69A0694C
:103DB00022F4407202434A61E3694048404AB3F545
:103DC000004F3BD1914218BF814210D100F025F93C
:103DD000074600F022F9804600F01FF9814600F006
:103DE0001CF906FB09F9824600F017F90FE000F014
:103DF0000CF9074600F009F9804600F006F9814603
:103E000000F003F906FB09F9824600F0FEF861684C
:103E1000490000F057F8DB003233B3FBF5F35B00E9
:103E2000B2FBF5F203F4F87300F05AF8ED00323506
:103E30006420B5FBF0F000F0070037E0914218BFB6
:103E400081420ED100F0E9F8074600F0E6F880461E
:103E500000F0E3F8814600F0E0F8824600F0DDF87B
:103E60000DE000F0D2F8074600F0CFF8804600F0F1
:103E7000CCF8814600F0C9F8824600F0C6F806FB8F
:103E800009F96168890000F01DF81B013233B3FBAA
:103E9000F5F3B2FBF5F203F0F00300F021F82D0189
:103EA00032356420B5FBF0F000F00F002168C31834
:103EB0008B60BDE8F0870000F369FFFF001401404C
:103EC000001001407743B7FBF1F206FB08F7B7FBA0
:103ED000F1F3B9FBF1F7B7FBF5F705FB17337047C3
:103EE00003EB021306FB0AF74643B7FBF1F2B6FBFE
:103EF000F1F06421B0FBF1F005FB102570470000E4
:103F00002DE9F84304000F4677D0494E306800F0A1
:103F10000F00B84202D200F072F86ED12068454D11
:103F2000810712D5400703D5A86840F4E050A86087
:103F30002178080703D5A86840F46040A860A96804
:103F4000A06821F0F0010143A9602078C1074CD599
:103F50006068012802D129688A0305E0022818BF99
:103F6000032803D129688A0103D446E02A6891070F
:103F700043D5A968890840EA8100A86041F28939DF
:103F8000FFF792F98046A868616800F00C00B0EB7A
:103F9000810F2AD0FFF788F9A0EB08004845F2D33B
:103FA000032020E02078410705D5A968E06821F4C6
:103FB000E0510143A9602078010706D5A86821696E
:103FC00020F4604040EAC100A86000F03DF8AA6813
:103FD0001949C2F30312895C184AC84010600020D6
:103FE00000F0EEFA0020BDE8F283306800F00F0028
:103FF0008742D7D200F003F8D4D00120F3E737701E
:10400000316801F00F01B94270470C480C4A006852
:1040100013680C49C3F3822206E00848084A006886
:1040200013680849C3F34232895CC84070470000F6
:10403000003C024000380240D4460008B80000208E
:10404000083802401848000818B5124C606800F0A3
:104050000C00042802D0082802D019E00E4812BD36
:1040600000232268206841022068C0F388104CBFFA
:1040700009490A4902F03F02A1FB0001FDF76AF974
:104080002168C1F30141491C4900B0FBF1F012BDA8
:10409000024812BD0438024040787D010024F4003B
:1040A0000CB430B583B0044606A802900A46002539
:1040B0000194009502AB01A9084878441E30FCF732
:1040C00063F801990D7000284EBF04460198041B47
:1040D000204603B030BC5DF80CFB00BFEBD0FFFF07
:1040E00080B50B48016841F400710160026842F438
:1040F00080620260016841F4807101600320FFF773
:10410000B2FB002000F05CFAFEF7F2FA002002BDDC
:10411000003C024038B5040001D1012032BD00202E
:10412000A06204F15005687820B90021297020466A
:10413000FEF782FB0220687000F028F86268A06831
:10414000A1690243E06802432069024360690243B7
:1041500001F40071E0690A430243206A0243A06A45
:10416000024320680260A169606A090C01F0040141
:104170000143206841602068C16921F40061C16188
:104180000020686001206870002032BD206801684E
:1041900021F040010160704738B50446206841684D
:1041A000826802F04103012B06D14D0604D5216C33
:1041B0002046BDE834400847930706D50B0604D5D2
:1041C000616C2046BDE83440084712F4B07F5CD0F3
:1041D0008B065AD553060ED594F85130032B47D091
:1041E000656D45F00405656500230093C56800957D
:1041F00083680093009D93060CD5636D43F0010323
:1042000063650025009583680093056825F04005E7
:1042100005600098D00509D5606D40F00800606524
:10422000002200922068826800920098606D60B35E
:104230002068426822F0E0024260012011F0030F82
:1042400084F851001CD020680FF2410541688908AC
:1042500089004160E06C18B10565E06CFEF710FF65
:10426000A06C90B10565A06CBDE83240FEF708BFB8
:1042700000210091C268009280680090009931BDD1
:104280002046BDE8324000F0BBB931BD806B002153
:10429000C187C18600F0B4B92DE9F843040017D0F6
:1042A0002078B54EC10741D5B06800F00C00042855
:1042B00007D0B06800F00C0008280BD170684102EC
:1042C00008D53168880331D56068002840F0B68091
:1042D00001204FE16068B0F5803F06D0B0F5A02F17
:1042E000316807D141F480213160306840F480307A
:1042F000306006E021F480313160326822F480229F
:104300003260606868B1FEF7CFFF05463168880308
:1043100000F19480FEF7C8FF401B6528F6D3032008
:1043200028E1FEF7C1FF05463068810340F1868031
:10433000FEF7BAFF401B6528F6D3F0E7FEF7B4FF9F
:10434000401B022840F2A780E9E7E06870B1012134
:104350003960FEF7A9FF05463068810700F1CB8080
:10436000FEF7A2FF401B0228F6D9D8E73860FEF717
:104370009BFF05463068810763D5FEF795FF401B1C
:104380000228F7D9CBE70860FEF78EFF0546706F6D
:10439000810775D5FEF788FF401B0228F7D9BEE7D5
:1043A0000528306F06D140F004003067306F40F0D0
:1043B000010005E0400840003067306F20F0040045
:1043C000306741F28938A06868B1FEF76DFF814619
:1043D000306F810700F19C80FEF766FFA0EB0900BB
:1043E0004045F5D39BE7FEF75FFF8146306F8107BD
:1043F00040F18E80FEF758FFA0EB09004045F5D351
:104400008DE7FEF751FF401B022840F2968086E7B9
:10441000FEF74AFF001B022840F2A7807FE700203A
:104420003866FEF741FF04463068810140F1A18003
:10443000FEF73AFF001B0228F6D970E720784F4FAD
:1044400081071BD5B06810F00C0F09D0B06800F0E0
:104450000C0008287FF479AF706841023FF575AF12
:104460003168880703D5E06801287FF431AF3168EF
:10447000206921F0F80141EAC00131602178080784
:104480000DD560693E4900283FF47DAF01220A60E6
:10449000FEF70AFF0546706F81077FF54FAF217861
:1044A00048073AD5306C0025C1000AD40095012593
:1044B000306C40F080503064306C00F080500090E0
:1044C0000098DFF8C080D8F80010C8051BD4D8F8D1
:1044D000000040F48070C8F80000FEF7E5FE814659
:1044E000D8F80010C8050ED4FEF7DEFEA0EB0900D8
:1044F0000228F5D913E73068216920F0F80040EA76
:10450000C1003060BAE7A06801287FF449AF4DE7E9
:104510001DB1306C20F080503064A06948B3B168A0
:1045200001F00C0108293FF4D3AE02287FF477AFE5
:1045300000203866FEF7B8FE0546306881013FF579
:1045400060AFE169206AA26A0143606A520841EAE9
:104550008011521EE06A41EA024141EA0061716045
:1045600001213966FEF7A0FE0446306881017FF51F
:104570004FAF0020BDE8F283003802400000474200
:10458000800E47420070004000B500BF1300964601
:104590009446103928BFA0E80C50FAD85FEA417C55
:1045A00028BF0CC048BF40F8042BC90728BF20F81B
:1045B000022B48BF00F8012B00BD704770477047C1
:1045C00038B50D4D0D4A297804464FF47A70B0FB8A
:1045D000F1F11068B0FBF1F0FFF779F950B9102C48
:1045E00008D2002221464FF0FF30FFF749F9AC60B6
:1045F000002032BD012032BDAC000020B8000020F8
:10460000704700007047FEE7FEE7FEE7FEE77047F1
:104610007047704700F02EB80D48FEF743BD0D48B7
:10462000FEF740BD0C48FFF73EBA0C48FDF77DBCD5
:104630000B48FFF7B1BD0B48FEF734BD0A48FEF743
:1046400031BD0A48FEF72EBD0948FEF72BBD00001C
:10465000D80200203803002004000020940100202C
:104660003C0100209803002018020020780200205E
:10467000F8030020024841680278891841607047B9
:10468000AC0000200E48016841F470010160002276
:104690000C49086840F0010008608A600A480A680E
:1046A00002400A60002209484860086820F480201F
:1046B0000860CA604FF0006005490860704700005C
:1046C00088ED00E000380240FFFFF6FE10300024C5
:1046D00008ED00E0000000000000000001020304FB
:1046E0000607080919E050F8042BD30744BFA9F1C5
:1046F00001039A18091F0023042942F8043BF9D248
:104700005FEA817C134604D54FF0000CA2F800C08C
:104710009B1CC90744BF0021197050F8041B0029D5
:10472000E1D1704730B5016884684218416802EBF6
:104730005103C9070BD54C4409E012F9011B12F8CB
:10474000015B002904F8015B05D5491CF9D19A42A7
:10475000F3D10C3030BD491EF1D5F8E710B507494B
:1047600079441831064C7C44163404E00A68081D6C
:10477000114488470146A142F8D110BD2C00000029
:10478000480000004EF68851CEF20001086840F45F
:1047900070000860BFF34F8FBFF36F8F4FF0007052
:1047A000E1EE100A704700003DFFFFFF200300000C
:1047B0003C010020000000006DFFFFFF8A010000A7
:1047C000BE0000000000002000F00DF8002801D01D
:1047D000FFF7C4FFAFF300800020AFF30080FEF7C7
:1047E000AFFE00F002F80120704700F001B80000B1
:1047F00007463846FDF73EFBFBE7000001488047CF
:1048000001480047854600080D480008AFF30080C6
:10481000FFF7B8FFFFF7D8FF000000000102030414
:1048200000002E004300FFF7FEBFFFF7FEBFFFF7BB
:10483000FEBFFFF7FEBFFFF7FEBFFFF7FEBFFFF7AC
:10484000FEBFFFF7FEBFFFF7FEBFFFF7FEBFFFF79C
:10485000FEBFFFF7FEBFFFF7FEBFFFF7FEBFFFF78C
:10486000FEBFFFF7FEBFFFF7FEBFFFF7FEBFFFF77C
:10487000FEBFFFF7FEBFFFF7FEBFFFF7FEBFFFF76C
:10488000FEBFFFF7FEBFFFF7FEBFFFF7FEBFFFF75C
:10489000FEBFFFF7FEBFFFF7FEBFFFF7FEBFFFF74C
:1048A000FEBFFFF7FEBFFFF7FEBFFFF7FEBFFFF73C
:1048B000FEBFFFF7FEBFFFF7FEBFFFF7FEBFFFF72C
:1048C000FEBFFFF7FEBFFFF7FEBFFFF7FEBFFFF71C
:1048D000FEBFFFF7FEBFFFF7FEBFFFF7FEBFFFF70C
:1048E000FEBFFFF7FEBFFFF7FEBFFFF7FEBFFFF7FC
:1048F000FEBFFFF7FEBFFFF7FEBFFFF7FEBFFFF7EC
:10490000FEBFFFF7FEBFFFF7FEBFFFF7FEBFFFF7DB
:10491000FEBFFFF7FEBFFFF7FEBFFFF7FEBFFFF7CB
:10492000FEBFFFF7FEBFFFF7FEBFFFF7FEBFFFF7BB
:10493000FEBFFFF7FEBFFFF7FEBFFFF7FEBFFFF7AB
:10494000FEBFFFF7FEBF00018100D4000001F900A7
:104950000010FC001E24F400204800082048000835
:104960002048000820480008204800082048000887
:1049700020480008F8FF0B224800082048000820C3
:10498000480008FAFF0600002448000801FD000363
:10499000BC000020D8000331110008FC00041F11E6
:0549A000000801F90010
:040000050800480D9A
:00000001FF
