:020000040800F2
:1000000008070020213C0008D53A0008D73A00082C
:10001000D93A0008DB3A0008DD3A00080000000089
:10002000000000000000000000000000DF3A0008AF
:10003000E13A000800000000E33A0008E53A000851
:100040004B3C00084F3C0008533C0008573C00085C
:100050005B3C00085F3C0008633C0008673C00080C
:100060006B3C00086F3C0008733C0008773C0008BC
:10007000E93A0008EF3A0008F53A0008FB3A0008B0
:100080007B3C00087F3C0008833C0008873C00085C
:100090008B3C00088F3C0008933C0008973C00080C
:1000A0009B3C00089F3C0008A33C0008A73C0008BC
:1000B000AB3C0008AF3C0008B33C0008B73C00086C
:1000C000BB3C0008BF3C0008C33C0008013B0008E3
:1000D000C73C0008073B0008CB3C0008CF3C0008A9
:1000E000D33C0008D73C0008DB3C0008DF3C00089C
:1000F000E33C0008E73C0008EB3C0008EF3C00084C
:10010000F33C0008F73C0008FB3C0008FF3C0008FB
:10011000033D0008073D00080B3D00080F3D0008A7
:10012000133D0008173D00081B3D00081F3D000857
:100130002DE9F84F74A7A2B0D7E90045CDE90045F5
:100140002C9EDFF8307C04918DF843605FF0000155
:100150006FA40D9112944FF0FF3682469046994657
:100160000FE0C3462C461BF8011B0498D04700281B
:10017000049000F0B2800D98401C641E0D90F2D1E6
:10018000A84498F80000252807D10021079108917C
:1001900009910A910B910C910DE06A463146404657
:1001A00000F0D0FF050001D10D98B5E0D9D50125AB
:1001B000E6E741F0010118F8010F2028F9D02328C3
:1001C0000CD02B2804D02D2805D0302809D086E06B
:1001D00041F00201EFE741F00401ECE741F00801D2
:1001E000E9E741F01001E6E700200F900AE00F98E0
:1001F000B84205DA00EB800302EB4302303A0F927B
:1002000008F1010898F80020A2F130000A28EED386
:1002100098F800002E2818BF0E9629D118F8010F63
:100220002A280BD1D9F80000C9F8000008F101080C
:1002300050F8042BC9F800000E9219E02D280CBFCD
:1002400018F8010B002000220E920BE040B90E9A24
:10025000BA4205DA02EB820403EB4403303B0E930F
:1002600008F1010898F80030A3F130020A2AEDD312
:10027000ADF84010129898F8001000F06DFF08B12A
:1002800018F8010B8DF842009DF84200682804BF61
:1002900098F80010682903D162208DF8420008E028
:1002A0006C2804BF98F800006C2804D171218DF8E7
:1002B000421008F1010813A806904A4618F8013BBD
:1002C00002A9504600F068F838B913AA02A95046AE
:1002D00000F0CAF900287FF554AF30461CE02A2808
:1002E00082D1D9F80020C9F8002052F8040BC9F8CF
:1002F000002000280F9003D540420F9041F00401E8
:1003000008F1010884E70000000000000000000080
:10031000686A6C747A4C000023B0BDE8F08F6228E4
:1003200020D0682811D06A2803D06C2827D07128E3
:1003300025D10868C01D20F007000860D0E900231F
:1003400008300860194610467047002A0A680A609B
:10035000106803D0121D0A6000B217E0121D0A6077
:1003600080B217E0002A0A680A60106803D0121DE4
:100370000A6040B20AE0121D0A60C0B20AE0002A18
:100380000A680A60106803D0121D0A60C11770471E
:10039000121D0A60002170477CB50D4611461C46AF
:1003A0002E69B4F1250200F04D811C3A00F08680E0
:1003B000121F022A40F282800E3A00F00781521F7B
:1003C0005AD0093A7AD0921E16D0521E35D0521EFB
:1003D000022A73D9121F30D0521F00F09A80521E89
:1003E0004AD0521E00F0E480D21E00F0FD80921E22
:1003F00042D0D21E40D02BE195F83A206C2A09D089
:100400006869421C6A610A680A6052F8043B0A6023
:10041000335427E10A680A6052F8043B0A6000215D
:10042000009301914FF0FF322A6329466A4600F09B
:1004300096F9002840F1168101E195F83A00012271
:10044000FFF76DFFC5E900010023994204DA6869EE
:10045000411C69612D210DE0288F810704D5686951
:10046000411C69612B2105E0C00722D56869411C48
:100470006961202131541CE095F83A000022FFF711
:100480004EFFC5E9000195F83800010711D5D5E9FF
:1004900000230020834208BF82420AD044F020009B
:1004A000782806D1686930213154401C411C6961AB
:1004B0003454214668693044E86083E00868C01D10
:1004C00020F007000860D0E9002308300860C5E983
:1004D0000023D5E90001C80F04D06869411C696197
:1004E0002D210DE0288F810704D56869411C6961C1
:1004F0002B2105E0C00704D56869411C69612021F2
:10050000315468693044E8602146284600F032FAE8
:10051000A8E005F13A02507820B14FF0FF340FF611
:10052000243070E01078622808D0682824D06A2827
:1005300012D06C282ED071280ED02BE00A680A60E9
:1005400052F8040B0A6020B94FF0FF340FF60C305C
:1005500059E0E96A017085E00A680A6052F8040B04
:100560000A6020B94FF0FF340FF6F0204BE0EA6A42
:10057000D317C0E9002375E00A680A6052F8040B3B
:100580000A6020B94FF0FF340FF6D0203BE0E96A53
:10059000018067E00A680A6052F8040B0A6020B91B
:1005A0004FF0FF340FF6B4202DE0E96A016059E006
:1005B0000A680A6052F8040B0A600021C5E90001CC
:1005C000EE607821284600F029F94BE06C2285F88E
:1005D0003A200B680B6053F8042B0B6052BB4FF0B2
:1005E000FF340FF6AC200EE095F83A206C2AF0D0DC
:1005F0000868086050F8044B0860EC603CB94FF0A4
:10060000FF340FF6702000F0B7FD201A76BD2E6B78
:10061000002E04D5204600F0CFFD044608E0324607
:100620000021204600F0E4FD002814BF041B3446DE
:10063000AC6117E0294600F092F8002812D54FF07F
:10064000FF3076BD6869411C69612521315409E09C
:100650006969481C686125227254210002D0411C3E
:1006600069613454002076BD2DE9F0410E460546FF
:10067000716B7069B46A091A306A091AB069091A8B
:10068000706A091AF069091A96F838000C1B4107BC
:1006900090460DD4002C0BDD2746B0682021A847DA
:1006A0000028B06057D0F06A401C7F1EF062F4D181
:1006B000736942463146284600F0ACFC00284AD116
:1006C000376A002F0ADDB0683021A8470028B060E3
:1006D00041D0F06A401C7F1EF062F4D1B369F26829
:1006E0003146284600F096FCA8BB776A002F09DD4A
:1006F000B0683021A847B06068B3F06A401C7F1E24
:10070000F062F5D1F068B169F369421831462846C4
:1007100000F080FCF8B9B76A002F09DDB06830211D
:10072000A847B060B8B1F06A401C7F1EF062F5D1F6
:1007300096F8380041070BD5002C09DDB068202160
:10074000A847B06038B1F06A401C641EF062F5D171
:100750000020BDE8F0814FF0FF30BDE8F0812DE9C9
:10076000F8470D46A3B02F6B002F8146904648BF37
:100770006FF0004700F068FD696B40180FF62C1110
:100780008128D1E90023CDE9012328BF4FF0FF30B4
:100790003ED20024002F2FDDD8F8001001AA6846B1
:1007A00000F0D2FC0646002E35D4D8F8000008B977
:1007B000761E30D4B7421FDB6869301881280AD30F
:1007C0000020686303AA29464846FFF74DFF04004E
:1007D00012D40020686103A8D5F814A032466946F7
:1007E000504400F037FDB244C5F814A058F8040B8B
:1007F000002818BFBF1BCDD12CB903AA29464846F3
:10080000FFF732FF044614B9002068616863204690
:1008100024B0BDE8F0874FF0FF34F8E72DE9FC473E
:1008200007468A463E69BAF16F0F08BF082405D013
:100830004AF02001782914BF0A2410243C25D7E966
:100840000023BAF1640F18BFBAF1690F90469946B8
:1008500006D100218B4203DAD8F1000869EB49097F
:100860000020814508BF80451FD1386BE8B9082CAE
:100870004CD197F83800010748D530203B2586F841
:100880003B0043E000280ED597F8380000F0140034
:10089000102808D17A6B7869121A386A121A511A1C
:1008A0000029C8BF3962BDE8F3878DF800A0404633
:1008B00049462246E31700F021FD3032D0B26D1ECA
:1008C0003A28019504DB9DF80000A0F151018A1837
:1008D0007255404649462246E31700F00FFD804618
:1008E00089460020814508BF804503D0F86871190A
:1008F0008842DCD3082C09D197F83800010705D5C8
:10090000715D302902D06D1E30207055C5F13C015B
:10091000B9617019F860386B8142B3DA411A3962F3
:100920004FF6EF70398F01403987BDE8F3872DE925
:10093000D04306460F4614464FF00008DFF83894BF
:1009400012E0E00707D542464B463046394600F0F4
:10095000EDFD06460F464046494642464B4600F0EE
:10096000E5FD641080468946002CEAD130463946C0
:10097000BDE8D0832DE9F34F054641F020048DB04A
:10098000D5E90089612C02AE09D0286B002848BF48
:10099000062003D408BF672C01D101202863D5E9C4
:1009A000002358004015401C0ED119030CD0032021
:1009B000A8619DF8380061381A2802D20FF2F4615C
:1009C00011E00FF2F4610EE058004015401C0FD109
:1009D00019030DD10320A8619DF8380061381A2849
:1009E00014D30FF2DC61E868032200F033FCD3E19A
:1009F000194621F00043B3F5801F10460DD20027A1
:100A0000BB4208BFBA42019703D111E00FF2AC61BB
:100A1000E9E701AA00F05CFE0AE0DFF8607307EB8B
:100A20001352DFF85C3301921940DFF85833194351
:100A3000C5E90001612C0ED1E86830210170811CEC
:100A4000E9609DF8381061290CBF78215821417068
:100A50006869801C6861D5E900AB2BF00043002079
:100A60002AF00002834204BF8242002300F05A8130
:100A7000612C40F0A980286B00284CBF2120401C2D
:100A800000904046009F7F1C49460022002300F052
:100A900057FED94601988DF8082038BF89F00049E3
:100AA000001F0190002FD0460DF1090040F349814D
:100AB00040F2FF71DFF8D0B20C910646404649463D
:100AC0000022002300F054FE80F03A814800400DDF
:100AD00000F11C0210D0002A0EDD0C98824205DBCA
:100AE00009F0004040EA0B01002013E0A448084050
:100AF00040EA025140460DE029F00043002028F072
:100B00000002834208BF82420FBF40461C2240467B
:100B100000F046FE8046894600F0E0FEFF1F002FF1
:100B2000044609DD00F0F8FE02460B464046494601
:100B300000F004FF80468946F01D072104E004F020
:100B40000F0200F8012D2411002C01DD491EF6D5FD
:100B5000491E5CBF002200F8012DF9D5ECE0002011
:100B6000194602AA0A4400E05B1E12F80149491E18
:100B70008442F9D00F2804D10DF10900425C521CC7
:100B80004254002904D50198001D02AE5B1C01905F
:100B9000591E12D49DF838007218147804F13008E8
:100BA0005FFA88F4392CC4BFA0F13A04A044491E6E
:100BB00002F80189F1D58DF83800286B002840F142
:100BC000B080591E2963ACE040464946002200230C
:100BD00000F0B6FD019938BF89F0004947F29750FF
:100BE00041436A4A91FBF2F20192D2F1070204DD1D
:100BF00040464946FFF79BFE0AE052420020644906
:100C0000FFF795FE02460B464046494600F008FFB6
:100C10008046662C286BDFF87CB106BF019F0A373F
:100C200006273F18142FC8BF142730208DF808005E
:100C300089460DF1090000E03046002F34DD0646FC
:100C40004046494601F010F801460A4606F10803FD
:100C500004200A26B2FBF6F606EB860EA2EB4E0245
:100C6000303203F8012C0A22B6FBF2F202EB820EBC
:100C7000A6EB4E063036401E03F8026DE9D1083F60
:100C8000002F03F10806D7DD084601F001F80246FF
:100C90000B464046494600F051FE00225B4600F0FC
:100CA00045FC80468946CBE70DF10901401A0DF15C
:100CB000090604E00199491E401E0191761C317815
:100CC0003029F7D0662C02D10199491C03E0652C2C
:100CD0000CBF012100212B6BCB189842B8BF431EDB
:100CE000002B1ED4834204DAF05C3528A8BF3920DB
:100CF00000DA30201946721E02EB010800E05B1E8C
:100D000018F80199491E8145F9D0392802D1705C43
:100D1000401C7054002904D50198401C16465B1CE9
:100D20000190019800B200901BB29DF83810324635
:100D3000284600F035F82FE0C61D002F3FF7BEAE65
:100D400030460DF10901401A009903468842C8BF98
:100D50000B46002B0DF109063FF52FAF8342BFF67E
:100D6000FEAE0DF10900C05C07287FF7F8AE0F203A
:100D7000F6E60000CBCCCC0C0000244002FCFFFFC8
:100D8000FFFF0F800000E03F0000F07FA086010021
:100D90000000F03F84D797410FB0BDE8F08F00000E
:100DA0002DE9F84783B006468A461746984600F074
:100DB000CDF9B8F1000F406A356B90F8009002DC75
:100DC0004FF00108BFA7BDF930404AF02000662867
:100DD00008BF641C15D0672840F0848014F1040F0C
:100DE000C0F28680AC4280F2838096F83800641CA2
:100DF000010702D4A845B8BF454620B22D1A48BF06
:100E000000250FFA84FAF068B169BAF1000F25DC09
:100E10004A1C30234354002D03DC96F838000107A8
:100E200003D5F06800F80290521C15EB0A0FB8BF0A
:100E30006C4220B2441941424445B8BFA046B26159
:100E400071620FFA88F5F561F068B3692A46394690
:100E5000184400F0FFF9641BB462C4E022B290456C
:100E6000084417DA4246394600F0F4F9B0694044C4
:100E7000B061AAEB0801002D716203DC96F838100E
:100E80000A0705D5F16801F80090F069401CF0618F
:100E9000B562A8E0394600F0DDF9B069002D504494
:100EA000A8EB040803DC96F838100A0703D5F168AC
:100EB00001F80090401CB0610FFA88F08542F0689C
:100EC000B369B8BFA8460FFA88F207EB0A011844C5
:100ED00000F0C0F9B0690FFA88F10844B061681AEF
:100EE000706280E0BAF1610F14D14FF0700A16E021
:100EF000A84504DA96F838100A0758BF45466D1E13
:100F000048BF0025BAF1670F14BF4FF0450A4FF0F4
:100F1000650A04E0BAF1410F08BF4FF0500AB16909
:100F2000F368481CB061002D17F8012B5A5403DCFC
:100F300096F838100A071BD5F168431CB36101F815
:100F40000090002D14DDA8F101080FFA88F0854209
:100F5000F068B8BFA8460FFA88F23946184400F086
:100F600079F9B0690FFA88F108446D1AB0617562B9
:100F7000F068B1690844002C80F800A003D42B214C
:100F80004170811C03E02D2141706442811C0020CE
:100F90006A460AE023460A2493FBF4F404EB840532
:100FA000A3EB450302F8013B401C24B2002CF1DC0A
:100FB000012806DC4AF02002652A04BF302201F82D
:100FC000012B48B9302001F8010B07E0401E1DF845
:100FD0000020303201F8012B0028F7DCF068B269FC
:100FE0001044091AF16196F8380000F01400102836
:100FF0000DD17169B0694118706A4118F0694118E2
:10100000B06A4118706B8142BCBF411A316204B0B2
:10101000BDE8F087F8B505460E4617461C46002089
:1010200074B117F8011BB068A847B06030B1F06A1E
:10103000401CF0620020641EF3D1F2BD4FF0FF307F
:10104000F2BD00007072696E74665F733A20256E9F
:1010500020646973616C6C6F776564007072696E8F
:1010600074663A2062616420256E20617267756D36
:10107000656E74007072696E74665F733A206261A7
:101080006420257320617267756D656E74000000C1
:101090007072696E74665F733A2062616420256CB9
:1010A0007320617267756D656E740000000000004A
:1010B000000000006E616E004E414E00696E6600D9
:1010C000494E46003000B1F5807F02D34FF0FF302B
:1010D00070470170012070470078401E8041C04376
:1010E000C00F70471A48704730B45368D418042BA7
:1010F00009DA41B1057804F8015B10F8015B15B11C
:101100005B1C491EF3E7536030BC704738B514468A
:101110001D4661B1FFF7E8FF61686A6B20469047A2
:101120006FF00102811A02D0491E03D005E06FF072
:10113000010032BD4FF0FF3032BD0021616032BD91
:10114000DA6B1047024BE1E7014BF9E701487047C2
:1011500048000020100000200278C9B28A421AB16B
:101160001CBF10F8012FF9E718BF00207047026874
:10117000531C03601170704780B500B906A0054983
:101180000B681BB122220021984701E000F08DFD81
:10119000222002BD04030020636F6E7374726169C4
:1011A0006E742068616E646C65723A2062616420BE
:1011B0006D6573736167650000F10103810704D0F9
:1011C00010F8011B89B18107FAD10268B2F101312F
:1011D000914311F0803F04BF50F8042FF6E710F858
:1011E000011B11B110F8011BFBE7C01A704700008A
:1011F000C9B2830706D0521E22D310F8013B994290
:10120000F7D11FE0083A13D302F1040241EA0121A9
:1012100041EA014150F8043B121F21BF4B40A3F1AA
:10122000013C2CEA030C1CF0803FF3D0C9B2001F34
:10123000083210F8013B521E28BF91EA030FF8D87C
:1012400018BF0120401E704780B5FFF74BFF006CB0
:1012500002BD000062B38B0708D0521E11F8013B9B
:1012600000F8013B00F024808B07F6D1830740F0A3
:10127000208000BF103A07D330B4B1E83810103ADC
:10128000A0E83810F9D230BC530724BFB1E80810E9
:10129000A0E8081044BF51F8043B40F8043BD207D3
:1012A00024BF31F8022B20F8022B44BF0B780370C7
:1012B0007047121F17D35B0009D151F8043B20F887
:1012C000023B1B0C121F20F8023BF6D20BE051F838
:1012D000043B00F8013B1B0A20F8023B1B0C121FC9
:1012E00000F8013BF3D238BF121D521E24BF11F883
:1012F000013B00F8013BF8D870470000B3BBD9B1FF
:10130000B2F5803F7DD2022A1ED98C46B1FBF2F1A4
:1013100002FB11C31B0443EA1043B3FBF2FC02FBC4
:101320001C3380B240EA0343B3FBF2F002FB1032FD
:1013300040EA0C4000237047022A05D98446B0FBDE
:10134000F2F002FB10C270474AB105D100F0010271
:1013500049085FEA3000704700220023704700F020
:10136000A7BC0B000200002100207047904271EBE7
:10137000030CF6D3B3F5803F2FD2F0B5B3FA83F761
:10138000B1FA81F4A7F10F0E3D1B5340CEF12006B8
:1013900002FA0EF2F3415340B5F10F0746D80F3C65
:1013A0002C444140C4F12006A040F1414140B1FB32
:1013B000F3F603FB1611A2FB0645001BA94102D25E
:1013C000761E8018594180EA010221FA0EF362FA72
:1013D0000EF200215A403046F0BD30B4B1FBF3FCB0
:1013E00003FB1C11A2FB0C45001BA94103D2ACF16D
:1013F000010C8018594130BC02460B466046002162
:101400007047B2F1807F65D3F0B5B2FA82F7B1FAD6
:1014100081F4C7F10F063D1B22FA06F307F1110E06
:10142000F24120355A40B5F10F07B8D94140C4F117
:101430002006A040F1414140B1FBF3FC03FB1C112D
:10144000A2FB0C45001BA94103D2BCF1010C801882
:1014500059410F2F12D30F3FC90341EA5041B1FB4D
:10146000F3F603FB1611A2FB0645D4EBC030A941ED
:1014700002D2761E8018594146EACC3C07B341405F
:10148000C7F12006B840F1414140B1FBF3F603FB40
:101490001611A2FB0645001BA94102D2761E801838
:1014A000594180EA010221FA0EF3C7F1200462FAE1
:1014B0000EF20CFA07F05A402CFA04F13043F0BD5A
:1014C00080EA010221FA0EF3002162FA0EF2604670
:1014D0005A40F0BD8C46B1FBF2F102FB11C31B0276
:1014E00043EA1063B3FBF2FC02FB1C331B024CEA21
:1014F000002043EA1063B3FBF2FC02FB1C331B0227
:101500004CEA002043EA1063B3FBF2FC02FB1C33FD
:101510001B024CEA002043EA1063B3FBF2FC02FB1F
:101520001C324CEA0020002370470000B0B581EA6D
:10153000030C0CF0004C40F2FF7515EA11541DBF6E
:1015400015EA1357AC42AF4239E0E41923EA455398
:1015500043F48013C90241F0004141EA505EC702E2
:101560001100A7FB020200284FF00000EEFB012053
:101570004FF00001E3FB072118BF42F001024018C1
:1015800000214941E3FB0E01A4F580640F0302D260
:1015900052004041494154F101046CDD470872F1A9
:1015A000004250F1000051EB0451A1F580115CBFE5
:1015B00041EA0C01B0BD4CEA05510020B0BD05EA7E
:1015C0001357AC4214BFAF4241E050EA410E1CBF7A
:1015D00052EA430E02E061460020B0BD24423C4482
:1015E0001BD15FEA070EF6D0090302BF01460020B7
:1015F000AEF1140EB1FA81F7AEEB070401FA07FE63
:101600000C37C7F1200100FA07F7C8404EEA000E78
:1016100023EA455343F48013A2E733F00043B3FABF
:1016200083F704BFB2FA82FE77440B3FE41BB7F1A5
:10163000200E2FBF02FA0EF3BB40C7F1200E22FA94
:101640000EFE38BF43EA0E03BA40641C82E750EA3C
:10165000410E14BF52EA430E6FF000014FF4001721
:1016600017EB430F8ABF194617EB410FB5E74CEA5A
:1016700005510020B0BDD4F10104B4F120070FDA08
:10168000C4F12007520828BF42F0010210FA07F502
:1016900001FA07F7E1BF2A43E0403843E1400FE099
:1016A000352C98DCC7F1200452EA400220FA07F2F8
:1016B00018BF42F0010231FA07F0A1400A430021AD
:1016C00072F1004250F1000051EB0C01B0BD00007E
:1016D00010B5144600F002F8226010BDC1F30A53A1
:1016E00043B14A0012F5001F28D2A3F2FE32A1EB4B
:1016F0000251704750EA410C20D001F0004C31EA11
:101700000C01B1FA81F204BFB0FA80F3D2180B3A9F
:10171000B2F120032CBF00FA03F1914041EA0C0121
:101720003EBFC2F1200C20FA0CF319439040524204
:1017300040F2FD33D21A01EB03517047002270478B
:101740004FF4001C1CEB410F94BF1CEB430F09E04E
:1017500041EA030C50EA4C0C52EA0C0C03D29942B9
:1017600008BF9042704714BF8B428242704700000E
:101770004FF4001C1CEB410F94BF1CEB430F09E01E
:1017800041EA030C50EA4C0C52EA0C0C03D28B4297
:1017900008BF8242704714BF9942904270470000D0
:1017A000124254D440F2FF7C1CEA11530FD063451F
:1017B00031D09B1863453CBF01EB0251704701F0EB
:1017C000004141EA0C510020AFF30080704750EA1D
:1017D000410320D001F0004C91EA0C011CD0B1FA79
:1017E00081F30B3B9A420DD9D21A994051EA0C0170
:1017F000C3F1200C20FA0CFC61449840531C40F2C9
:10180000FF7CD7E7914041EA0C01C2F1200C20FA9D
:101810000CF3194390407047B0FA80F31533202B36
:10182000E0D3202AEED3203A203B9A4209D9D21A9B
:1018300000FA03F141EA0C010020531C40F2FF7C46
:10184000B8E700FA02F141EA0C0100207047524269
:1018500040F2FF7C1CEA11530DD06345DBD0B2EBA4
:10186000030C3CBFA1EB025170470CF1010221EACD
:10187000035141F4801150EA410CCCD001F0004CEE
:10188000352A27DC30B481EA0C01B2F1200309DAF1
:10189000C2F12003044601FA03F5D0402843D140A9
:1018A0009C400CE0C3F12002450020FA03F418BF6D
:1018B00044F0010421FA03F091400C43002174F13B
:1018C000004550F1000051EB0C01244230BC7FF484
:1018D0007BAF70476146002076E70000C1F30A53F2
:1018E00040F2FE329B1A14DDD3F120034FEAE1727D
:1018F00008DDC90241EA505141F00040D84080184B
:101900005040704703F2E13010B1D24382F0004002
:101910007047002070470000C11768B14840401A66
:10192000B0FA80F29040D21CC907C2F5846241EA45
:10193000025202EBD02140057047000070B44FF016
:10194000004591EA030F40F1B5816B40841A71EBB9
:10195000030603D2001BB141121973414FF4001C5E
:101960001CEB410F34BF7CEB430442E00C0DA4EBB5
:101970001356352E4FDC45EAC323DB0A45EAC12165
:10198000C912B6F120050DDD63FA05F6EB4086EAD3
:101990000305124218BF45F00105C01851F10001BE
:1019A0000CD213E062FA06F5F2405540F3415A407A
:1019B000B340F3405A408018594107D349085FEAC1
:1019C00030005FEA350528BF45F0010501F58011BB
:1019D000420875F1004250F1000041EB04514E0005
:1019E00016F5001F70BC38BF70470020090D0905AF
:1019F00070471CEB410F10D252EA43060BD0BCEBF0
:101A0000410F05D80C0DAB43661E342EB6DD02E047
:101A1000AB438018594170BC704770BC70470000E0
:101A2000F0B540F2FF7581EA030C0CF0004C15EAAA
:101A300011541DBF15EA1357AC42AF42E5E0BC415B
:101A4000C1F31301C3F31303801A994143F48013C4
:101A500004D2641E4000494180185941C90241EA3C
:101A60005051B1FBF3F603FB1611A2FB0675D7EB41
:101A7000C020A94102D2761E80185941C90241EA0C
:101A80005051B1FBF3FE03FB1E11A2FB0E75D7EB09
:101A9000C020A94103D2AEF1010E8018594189023C
:101AA00041EA9051760546EA8E2EB1FBF3F603FB30
:101AB0001611A2FB0675D7EB8020A94102D2761E33
:101AC00080185941C90241EA50514EEA060EB1FB55
:101AD000F3F603FB1611A2FB0675D7EBC020A94154
:101AE00002D2761E80185941C90241EA5051B1FB19
:101AF000F3F703FB1711A2FB0735D3EBC020A94175
:101B000067F100070CBF004247F0010766F3D527D5
:101B10004FEA1E31B80814F5806412DDBD0775F177
:101B2000004250EB0E5051EB045111F5801F5CBF89
:101B300041EA0C01F0BD4CF07F6141F0E041002032
:101B4000F0BDBD076D0840EA0E5041F48011D4F19C
:101B50000104B4F120060ADAC4F120060200E040D4
:101B600001FA06F3E1401843B24015430EE0342C6D
:101B700013DCC6F1200445EA40056D0820FA06F2A0
:101B8000154321FA06F0A1400D43002175F10042F2
:101B900050F1000051EB0C01F0BD00205FEA0C0198
:101BA000F0BDCFB992185B41B3FA83F704BFB2FA24
:101BB00082F6BF190B3FB7F120062FBF02FA06F3DA
:101BC000BB40C7F1200622FA06F638BF3343BA40BD
:101BD0001CB1E419641E33E77F4231F00041B1FAD1
:101BE00081F404BFB0FA80F6A4190B3CB4F12006CE
:101BF0002FBF00FA06F1A140C4F1200620FA06F634
:101C000038BF3143A0403C1B1AE7AC421ABF05EA7B
:101C10001357AF4212E050EA41061CBF52EA430696
:101C2000BFE750EA4107304661461CBF41EA055113
:101C3000F0BD52EA430C08BFC143F0BD00204FF491
:101C4000001616EB410F98BF16EB430F08BF16EBBB
:101C5000410F24BFC14305E016EB430F0CBF6146A3
:101C60004CEA0551F0BD0000400D491840EA8120C2
:101C70000CD2490DA1F58061491C40F0004005DB04
:101C8000D1F11F0154BFC840C017704700207047F2
:101C9000014648B1B0FA80F18840C91CC1F58461A1
:101CA000090501EBD02140057047012000F0B6B8CE
:101CB00070470000841A71EB030604D26E40001BCB
:101CC000B141121973414FF4001C1CEB410F34BF9A
:101CD0007CEB430682E00C0DA4EB1356362E7BDC26
:101CE000012E45EAC32341DC43EA525312BFD2021C
:101CF00092025B08240545EAC12141EA5051D2EB2A
:101D0000C020994125D407D1B0FA80F610FA06F127
:101D100062D00020203608E0B1FA81F6B140C6F169
:101D2000200220FA02F21143B0404FEAF474B4EBFF
:101D3000465434F001064FEA74040AD8D6F500166A
:101D4000760D04F00044F04061FA06F25040F14094
:101D50004840C00A40EA415021F0004128BF5FEAF4
:101D6000500550F1000044EBD12135E0DB0A45EA93
:101D7000C121C90AB6F120050EDD42EA0242120C69
:101D8000C5F1200603FA06F6EB4042EA06056D426D
:101D9000984161F100010DE062FA06F5F24055400C
:101DA00063FA06FC82EA0C02F3405A406D4290410D
:101DB00061EB030111F4801F05D1641E620502D09E
:101DC0006D004041494121F48011430875F1004301
:101DD00050F1000041EB045170BC70471CEB410F07
:101DE00015D223F0004352EA43060BD04FEA4C0CC5
:101DF000BCEB410F04D80C0D661E342EB7DDEBE7AB
:101E0000801A994150EA410608BF0021E4E708BF63
:101E10001CEB430F28BF6FF00001DDE780B5AFF387
:101E20000080024A11001820ABBEFBE7260002002A
:101E300038B5040001D1012032BD00F022F808B904
:101E400000F023F800F013F800F024F8FFE74161F8
:101E500000F001F832BD2068C16841F40051C16052
:101E60000020686020206870A8700020704724203F
:101E700068702068C16821F40051C160204600F0FC
:101E80000EBA04F1380568787047002129702046A1
:101E900000F0E8BA2068016921F4904101612068EE
:101EA000416921F02A01704770B5044604F13805F4
:101EB00013466878202831D109B1180001D10120DA
:101EC00070BD2878012829D001222A702162A384BC
:101ED000E3840020686021206870226B0FF23120BB
:101EE0009062226B0FF25520D062226B0FF2952088
:101EF00010630020266B70632068021D206B00F0C9
:101F00006CFB21686FF0400008600020287020689A
:101F1000416941F080014161002070BD022070BD27
:101F200038B5044604F138051346A87820283ED178
:101F300009B1180001D1012032BD2878012836D01E
:101F400001222A70A162A385002068602220A87067
:101F5000626B0FF2F1109062626B0FF22120D0627F
:101F6000626B0FF2212010630020626B50630A46FF
:101F70002068011D606B00F030FB0020009020689D
:101F80000168009142680092002200992A70C2689C
:101F900042F48072C2602068416941F001014161F0
:101FA0002068416941F040014161002032BD0220BA
:101FB00032BD416921F040014161606B704738B525
:101FC000044625682968EA686B6911F00F0007D19B
:101FD00088065DD590065BD52046BDE8324013E10A
:101FE000D80702D412F4907F52D0C80705D5D00587
:101FF00003D5E06B40F00100E063480705D5D80742
:1020000003D5E06B40F00200E063880705D5D807F0
:1020100003D5E06B40F00400E063080705D5D8075E
:1020200003D5E06B40F00800E063E06B00286ED061
:10203000890604D5900644BF204600F0E5F82068E4
:102040004069E16B0A0701D440061BD5204600F029
:10205000C7F8206841694A060FD5FFF7AAFF60B1AB
:102060000FF299114163606B00F0F1FA00284ED035
:10207000606B416BBDE8344008472046BDE8324004
:1020800000F068BC204600F065FC0020E06331BD34
:1020900008062CD510062AD594F83900212836D107
:1020A000A168206AB1F5805F0DD10188C1F30801F4
:1020B0006960206918B9216A881C206207E0206ADB
:1020C000411C216203E0411C216200786860E08CC1
:1020D000401EE08480B2D0B92068C16821F0800140
:1020E000C1602068C16841F04001C16031BD48064F
:1020F0000DD550060BD5E86820F04000E86020219F
:1021000084F839102046BDE8324000F024BC31BDCF
:10211000416A00680268930644BF084600F01BBC91
:102120000020C8840868426922F080024261086881
:10213000C16841F04001C16070470000406A00F092
:102140000BBC0000416A00680268930613D40020AB
:10215000C8850868C26822F48072C2600868426953
:102160005208520042610868426922F0400242610E
:10217000202081F83A00084600F0FFBB406A00F0DA
:1021800013BD000038B5446A2068406904F1390580
:102190002978212906D1000604D50020E0842046B4
:1021A00000F015F8206840696978222906D14006B8
:1021B00004D50020E085204600F012F8E06B40F0E6
:1021C0001000E0632046BDE8324000F0C3BB016868
:1021D000CA6822F0C002CA60202180F83910704716
:1021E0000168CA6822F49072CA6001684A6952089C
:1021F00052004A61202180F83A107047406A00215D
:10220000C185C18400F0A6BB80B590F83A102229A0
:1022100043D18268B2F5805F14D1826A016941B905
:1022200003685968C1F308011180826A911C8162B8
:1022300018E001684B6803F0FF031380816A4A1CB1
:1022400082620FE001690029816A04D14A1C82621E
:102250000268536805E04A1C82620268536803F012
:102260007F030B70C18D491EC18589B299B9016880
:10227000CA6822F02002CA600168CA6822F480722B
:10228000CA6001684A69520852004A61202180F8F8
:102290003A1000F072FB002002BD022002BD2DE9C1
:1022A000F0470446642521680A69E06822F4405238
:1022B00002430A611926CA6831480240A0680243F5
:1022C0002069024360690243CA604A69A06922F436
:1022D000407202432B484A6181420ED100F0B8FEA1
:1022E000074600F0B5FE804600F0B2FE814600F0E1
:1022F000AFFE824600F0ACFE0DE000F0A1FE074606
:1023000000F09EFE804600F09BFE814600F098FEA5
:10231000824600F095FE06FB09F961688900774363
:10232000B7FBF1F206FB08F7B7FBF1F3B9FBF1F7E6
:10233000B7FBF5F705FB17331B013233B3FBF5F39E
:10234000B2FBF5F203F0F00303EB021306FB0AF70E
:102350004643B7FBF1F2B6FBF1F06421B0FBF1F0BC
:1023600005FB10252D0132356420B5FBF0F0216806
:1023700000F00F00C3188B60BDE8F087000000007C
:10238000F3E9FFFF00380140694881B0016841F07E
:1023900001010160026802F00102009200994168A7
:1023A00041F080514160406800F0805000900098FA
:1023B0006048016821F0E06141F08061016001B096
:1023C000704778B585B000F091F821685A4A91427B
:1023D0003BD100F087F8594E42F48052026002224D
:1023E000016801F4805100F086F8B02100F092F805
:1023F000402000F087F800207060B0608020F0601E
:10240000002030617061B061F06130464C4D356044
:1024100000F0A4F808B100F0B3FBE664746205F1C3
:102420001400484E306010207060002000F00FF85B
:1024300008B100F0A5FBA6647462002200212320ED
:1024400000F04CFE232000F066FE06B070BDB060C8
:102450008020F060002030617061B061F061304632
:1024600000F07CB878B585B000F040F82168374AB4
:10247000914235D100F036F8354E42F48042026088
:102480000222016801F4804100F035F84FF4007138
:1024900000F040F84FF4806000F034F82D4D05F165
:1024A0001400306000207060FFF7D1FF08B100F029
:1024B00067FB102066637462274E70600020B06076
:1024C0003560FFF7C5FF08B100F05AFB2663746260
:1024D00000220021252000F001FE252000F01BFE37
:1024E00006B070BD1248184D02687047044601A836
:1024F000102100F03BBE00910099016841F00401F9
:10250000016070470021019002910391284601A9C2
:1025100000F030BE006800F00400009000980191C7
:1025200003200490029201A9284600F023BE000077
:102530001810024004000140003001403802002021
:102540001C0002407C0200200008014000380140CD
:10255000C0020020440002402C01002030B508B920
:10256000012030BD0268DFF874138A4200F138039D
:1025700006D2DFF86C1300F029F8DFF8681305E0E5
:10258000DFF8641300F022F8DFF8601359600221CD
:1025900080F82110146841686FF30D140C438168B2
:1025A0000C43C1680C4301690C4341690C438169C8
:1025B0000C43C1690C43146000211960012180F8AB
:1025C0002110002180F82010002030BD8C18142527
:1025D000B4FBF5F4A4009C607047F8B504460025F0
:1025E00094F82000012801D10220F2BD94F82100C6
:1025F0000126012884F8206024D1022684F8216075
:1026000004F12C06F560206807687F087F000760EA
:10261000204600F08EF92168306820B10A6842F047
:102620000E020A6008E0086820F0040008602068D4
:10263000016841F00A0101602068026842F001026D
:10264000026002E084F8205002252846F2BDF8B569
:1026500090F821200024022A00F1340103D0042044
:10266000486001245FE00268DFF88462136823F0A9
:102670000E0313604FF48077026815686D086D00D3
:1026800015604FF480320368B3424FF4805519D976
:10269000DFF84862B34208BF012210D0DFF854626D
:1026A000B34208BF10220AD0DFF84C62B34208BF21
:1026B0003A4604D0DFF84462B34208BF2A46DFF846
:1026C000403227E0DFF83CC263451CD0DFF838C257
:1026D00063451AD0DFF834C2634518D0DFF8307292
:1026E000BB420EBF2A46DFF82C52AB4210D0DFF8B7
:1026F0002852AB4208BF4FF4801209D0B34207D131
:102700004FF0807204E0012202E0102200E03A461D
:10271000DFF808321A60012280F8212080F820407A
:10272000096801B188472046F2BD2DE9F84F00F154
:10273000280204275169734BD1F800E004686C4902
:1027400025689669DFF8B881DFF8B091DFF8A8A1B5
:10275000DFF8A0B1DFF884C1B7401EEA070F4AD006
:102760006F0748D52568AD0603D4256825F0040514
:1027700025604FF4802407688F424FF480454FF462
:10278000806611D9674508BF04240AD05F4508BF99
:10279000402406D0574508BF344602D04F4508BFF5
:1027A0002C46C8F8004020E09F4217D0564B9F426D
:1027B00016D0564B9F4215D0554B9F420EBF2C460C
:1027C000544B9F420FD0544B9F4208BF4FF480049C
:1027D00009D08F4207D14FF0806404E0042402E066
:1027E000402400E034464D490C605168002971D006
:1027F000BDE8F44F08470227B7401EEA070F4FD045
:10280000AF074DD52568AD0606D4256825F00A0525
:102810002560012480F821404FF4003407688F427E
:102820004FF400554FF4007611D9674508BF0224D4
:102830000AD05F4508BF202406D0574508BF34465C
:1028400002D04F4508BF2C46C8F8004020E09F4208
:1028500017D02D4B9F4216D02C4B9F4215D02C4B9E
:102860009F420EBF2C462B4B9F420FD02A4B9F42BC
:1028700008BF4FF4001409D08F4207D14FF0007405
:1028800004E0022402E0202400E0344623490C60E6
:10289000002180F820101168E1B1BDE8F44F08472D
:1028A000082101FA06F61EEA060F13D0290711D5F2
:1028B000216821F00E01216000F032F8012300218F
:1028C000136180F8201080F82130916811B1BDE8C3
:1028D000F44F0847BDE8F18F0000000008040240F3
:1028E000F8FFFDBF00000240F8FBFDBF00040240FE
:1028F000800002401C0402403004024044040240B4
:1029000004040240080002401C0002403000024063
:1029100044000240580002406C00024004000240A3
:10292000012391698B4051694B60704790F82100F9
:10293000704738B5046C0125A540C46B6560046818
:1029400063604068102802D1A260E16031BDA160DF
:10295000E26031BD704770477047000010B50A460D
:102960006C4C014604F15800FFF79EFA9C34204657
:10297000FFF7DCFF0128FAD110BD38B5654C04F132
:1029800098050122294604F15800FFF78DFA2946DF
:1029900004F15800BDE838400122FFF7C1BA5D4B91
:1029A000984204D101225C49184600F017BD7047D7
:1029B00010B55948594C027872A1204600F05CFFCE
:1029C0002046BDE810401E21C8E7000030B585B0A4
:1029D00000F072FF00F0ACF86846102100F0C6FB72
:1029E000504C4F4D606840F0040060600022606809
:1029F00000F0040004904FF480710498284600F021
:102A000084FC4FF48070012100900191002002218C
:102A1000029003912846694600F0ACFB4FF4C04099
:102A200000210090019102912846694600F0A2FB26
:102A300020683A4D40F00100206000222168354CAA
:102A400001F001010091002100980C2000F046FBEC
:102A50000C2000F060FB002200210D2000F03EFB66
:102A60000D2000F058FB002200210E2000F036FB64
:102A70000E2000F050FB002200210F2000F02EFB62
:102A80000F2000F048FB2848A0654FF46120E06566
:102A9000002020666066A0660C20E06600202067AB
:102AA000606704F15800FFF7C3F9204820604FF435
:102AB000827060600020A060E06002202061012040
:102AC00060614FF48020A0611820E0610020206246
:102AD0006062A0620A20E062204600F0FFFE012250
:102AE00004F1980104F15800FFF71AFA5FF00102AF
:102AF0002AA1284600F0C0FE1E212846FFF72EFF1F
:102B00000F202870687001222946204600F02CFC16
:102B1000FEE7000090000020D4010020700100209A
:102B2000000801401410024000380140003001400C
:102B300000B58FB005A8282100F018FB68461421C5
:102B400000F014FB022005900121099110200A9049
:102B500002210C9100200D904FF4E0110E9105A878
:102B600000F024F80F200090022100200191029033
:102B7000039004900121684600F0A6F90FB000BD53
:102B8000704700007370695F72785F627566666592
:102B900072203D2030782578200D0A006265676933
:102BA0006E202564200D0A00704700002DE9F843CF
:102BB0000646DFF8B0543078C1074AD5686800F09F
:102BC0000C00042807D0686800F00C0008280BD11E
:102BD0006868C10308D5296888033AD57068002859
:102BE00040F0C080012069E17068B0F5803F0FD0EF
:102BF00038B9296821F480312960286820F48020C0
:102C000009E0B0F5A02F296807D141F4802129609F
:102C1000286840F48030286006E021F48031296083
:102C20002A6822F480222A60706868B100F098FE59
:102C300004462968880300F1958000F091FE001B8E
:102C40006528F6D3032039E100F08AFE044628689F
:102C5000810340F1878000F083FE001B6528F6D3D6
:102C6000F0E700F07DFE001B022840F2AA80E9E7B1
:102C7000306970B10121396000F072FE04462868A5
:102C8000810700F1DC8000F06BFE001B0228F6D902
:102C9000D8E7386000F064FE04462868810765D5EF
:102CA00000F05EFE001B0228F7D9CBE7086000F0B9
:102CB00057FE0446686A810777D500F051FE001B75
:102CC0000228F7D9BEE708B9286A09E00528286A6A
:102CD00006D140F004002862286A40F0010005E0B7
:102CE000400840002862286A20F00400286241F26F
:102CF0008938F06868B100F033FE8146286A8107A0
:102D000000F1AA8000F02CFEA0EB09004045F5D3AD
:102D100098E700F025FE8146286A810740F19C80F3
:102D200000F01EFEA0EB09004045F5D38AE700F055
:102D300017FE001B022840F2A28083E700F010FE7D
:102D4000001B022840F2B5807CE700F0B9F8044689
:102D50002868810140F1B18000F002FE001B0228CA
:102D6000F6D96FE73078DFF8087381071BD56868FC
:102D700010F00C0F09D0686800F00C0008287FF4F0
:102D800077AF6868C1033FF573AF2968880703D53B
:102D9000306901287FF426AF2968706921F0F801B5
:102DA00041EAC0012960317808071DD5B069DFF814
:102DB000C41200283FF47AAF01220A6000F0D0FD6F
:102DC0000446686A81077FF54CAFDFF89C120868FB
:102DD000C0084FF47A72B0FBF2F2009200BF009884
:102DE000411E00280091F9D13078410739D5E869B2
:102DF0000024C10009D4E86940F08050E861012452
:102E0000E86900F0805000900098DFF86C82D8F8F4
:102E10000010C8051BD4D8F8000040F48070C8F832
:102E2000000000F09DFD8146D8F80010C8050ED4C2
:102E300000F096FDA0EB09006528F5D302E72868AD
:102E4000716920F0F80040EAC1002860ABE7F06843
:102E500001287FF438AF3FE71CB1E86920F08050CB
:102E6000E861F06948B3696801F00C0108293FF492
:102E7000B9AE02287FF469AF00F022F80446286852
:102E800081013FF554AF306AB0F5803F05D16968E4
:102E9000B06821F40031014369606968306A21F447
:102EA00074110143706A01436960012000F009F860
:102EB0000446286881017FF541AF0020BDE8F28318
:102EC0000020386600F04CBD2DE9F8436B4F0546F5
:102ED0003868894600F00700484502D200F087F8BC
:102EE00079D128685F4C810712D5400703D5606807
:102EF00040F4E06060602978080703D5606840F41A
:102F0000605060606168A86821F0F0010143616071
:102F10002878C10757D56868012802D121688A033B
:102F200003E0022803D121688A0103D453E0226818
:102F3000910750D56168890840EA8100606041F2DC
:102F4000893800F00DFD0646686801280BD16068DD
:102F500000F00C00042836D000F002FD801B404534
:102F6000F5D303202DE0022837D1606800F00C0073
:102F7000082828D000F0F4FC801B4045F5D3F0E78A
:102F80002878410705D56168E86821F4E0610143CC
:102F900061602878010706D56068296920F46050CF
:102FA00040EAC100606000F02DF862683449C2F365
:102FB0000312895C2C4AC8401060002000F0D6FC47
:102FC0000020BDE8F283386800F007008145D7D2C1
:102FD00000F00DF8D4D00120F3E7606810F00C0F7A
:102FE000F1D000F0BDFC801B4045F6D3B9E739684D
:102FF000C90849EAC1013960386800F0070048454E
:10300000704700001F4919480A6802F00C03082B9A
:1030100000D0704710B500BF1DA4C2F38343D20394
:10302000E35C09D5096800BF1DA2C1F340415843C4
:10303000515CB0FBF1F010BD18461349484310BD78
:103040000948104A006813681049C3F3022206E0D9
:1030500005480C4A006813680C49C3F3C222895C16
:10306000C8407047001002400C00002000127A0097
:1030700000004242800442420070004000200240B2
:10308000C43A00080410024000093D003C3C00081E
:1030900002030405060708090A0B0C0D0E0F101099
:1030A000010200000901020081B006D5294A00F0A2
:1030B0000F00104400F8041C01E0274B195401B024
:1030C0007047264A13684FF6FF0100020B4000F4D8
:1030D000E0601843224908431060704738B51F4B21
:1030E0001C68C4F30223C3F10704052C28BF042481
:1030F0001D1D072D34BF0023DB1E012505FA04F436
:10310000641E2140994005FA03F35B1E1A401143E7
:10311000BDE83440C6E7012200F01F01114BFFE774
:103120008A40400943F82020704710B5401EB0F196
:10313000807F01D3012010BD0B4C60600F214FF048
:10314000FF30FFF7AFFF0022A260072020600020C1
:1031500010BD000018ED00E000E400E00CED00E020
:103160000000FA0500E100E010E000E0002200F0BD
:103170001DBC00002DE9F84F83460F460020804615
:103180006549664A664B4FF00F094FF0010A3C68EB
:103190000AFA08F606EA040EB64540F0AE807C68EE
:1031A0003CB3012C1AD0022C1DD0032C2ED0112C94
:1031B00016D0122C1AD05B4DAC421CBF5A4DAC42FB
:1031C00017D05A4DAC421CBF594DAC4211D0594D8D
:1031D000AC421CBF584DAC420BD018E0F86816E06A
:1031E000F868001D13E0F868083010E0F8680C304B
:1031F0000DE0B86808B9042009E0012819BF0820CB
:10320000CBF814600820CBF8106000E00020BEF579
:10321000807F03D2DC464FEA880404E0A8F108046A
:103220000BF1040CA400DCF8005009FA04F6B543D5
:1032300000FA04F42C43CCF800407C68E4005CD530
:103240001C6844F001041C604FEA980C1D6805F0EE
:1032500001050095009C52F82C604FEA880404F0A8
:103260000C0409FA04F526EA0505344EB34508BFF7
:10327000002618D0324EB34508BF012613D0314E78
:10328000B34508BF02260ED02F4EB34508BF032614
:1032900009D02E4EB34508BF042604D02C4EB345AA
:1032A0000CBF0526062606FA04F42C4342F82C40EF
:1032B0006FEA0E067C68E50304D50D684EEA050545
:1032C0000D6002E00C6834400C607C68A5034C681B
:1032D0004CBF4EEA040434404C607C68E5028C68C4
:1032E0004CBF4EEA040434408C607C68A502CC6874
:1032F0004CBF4EEA04043440CC6008F10108B8F138
:103300000F0F7FF644AFBDE8F18F81B002B9090419
:10331000016101B070470000000401400800014055
:1033200018100240000011100000121000002110BF
:10333000000022100000311000003210000801408F
:10334000000C014000100140001401400018014031
:10335000001C01404A60006801684A0603D4026804
:1033600042F040020260704770B500F0D6F801D11B
:10337000022070BD012323706078012818BF022548
:1033800028D109B1100001D1012523E0032060708C
:1033900065603163B286F286B56375643564B5875E
:1033A000F587B068B0F5004F04D13068016841F48A
:1033B00080410160B16C0FF29930C862B16C0FF2BC
:1033C000A9208862B16C0FF2A130086300F0ACF85C
:1033D00000F0C3F800202070284670BDF8B50646FE
:1033E0000025B068002804BF7368B3F5827F06F13A
:1033F000500408D10420607001B03046BDE8F040B0
:1034000013460A4636E02378012B01D10220F2BD93
:10341000012727706378012B18BF022529D109B134
:10342000130001D1012524E0042363706560B163BA
:10343000B287F28735647564B586B0F5004FF586BE
:1034400004D13068016821F480410160F16C0FF211
:103450000930C862F16C0FF2552000F06FF8306847
:10346000FFF77AFF3068416841F02001416000F0C9
:103470004EF848E0F8B500F050F801D10220F2BD56
:10348000012727706778012F09D07068B0F5827F17
:1034900002BFB0680028042F01D0022533E00029C4
:1034A00018BF002A01D0180001D101252BE0607857
:1034B000012804BF0527677065603163B386F38612
:1034C000B263B387F38735647564F06C617804295F
:1034D00005D10FF28522C2620FF2D11004E00FF283
:1034E0008122C2620FF21520F16C00F027F800F083
:1034F0000EF8B16CCD62B16C8D62B16C0D6300F0F1
:1035000013F800F02AF8002020702846F2BD306839
:10351000416841F0010141607047064606F15004E0
:103520000025207801287047B16C4D63F38E306818
:10353000316B00F10C02B06CFFF74FB88862F16C90
:103540000FF225200863F16C4D63F38F3068B26B86
:1035500000F10C01F06CFFF740B8306801684A06D2
:1035600003D4026842F0400202603068416841F0D2
:10357000200141603068416841F0020141607047BC
:10358000016821F040010160704738B504462068A9
:103590004168826802F04103012B06D14D0604D533
:1035A000216C2046BDE834400847930706D50B063A
:1035B00004D5616C2046BDE83440084712F0600F26
:1035C00050D08B064ED553060ED594F85130032BB0
:1035D0003BD0656D45F00405656500230093C56823
:1035E000009583680093009D92060CD5626D42F0B1
:1035F000010262650023009382680092036823F051
:10360000400303600098606D60B32068426822F058
:10361000E0024260012011F0030F84F851001CD039
:1036200020680FF265154168890889004160E06CE7
:1036300018B14563E06CFFF70AF8A06C90B14563E0
:10364000A06CBDE83240FFF702B800210091C268CB
:10365000009280680090009931BD2046BDE832405C
:1036600000F0BDB931BD000038B505466C6A00F008
:1036700077F90246286801688B060FD400F010F82D
:103680002046642100F0CCF800F0E1F800F0E5F805
:103690000020E08600F057F800B1CEE02046E7E0D9
:1036A0002068416821F00201416070470146486A84
:1036B00009680A6893061ED401684A689208920055
:1036C0004A604168B1F5827F0BD18168B1F5004F46
:1036D00018BFB1F5806F04D101680A6822F040027A
:1036E0000A600021C187012180F85110416D002935
:1036F00018BF00F074B9FFF75BB9000038B5054694
:103700006C6A00F02DF90246286801688B060ED419
:103710006421204600F084F800F099F800F00DF8DC
:103720000020E086E08700F00EF800B185E000BFE1
:103730002046BDE8324000F053B92068416889084E
:10374000890041607047012084F85100606D704726
:10375000406A00F046B90000406A00F043B900003A
:10376000406A00F040B90000406A01684A68920867
:1037700092004A600122416D41F01001416580F8DC
:10378000512000F02CB90000406A0021C187C18699
:1037900000F025B92DE9F041069F05460E469046FA
:1037A0001C46286881683140B1420CBF01200020CE
:1037B000404532D014F1010FF3D024B100F0D0F81D
:1037C000C01BA042EDD32868416821F0E0014160B0
:1037D0006868B0F5827F09D1A868B0F5004F18BFBE
:1037E000B0F5806F02D12868FFF7CAFEA86AB0F56D
:1037F000005F0AD129680A684DF6FF7002400A602E
:103800002868016841F40051016005F1500001226F
:10381000427000210170032000E00020BDE8F0812B
:103820001CB500920B46044600228021FFF7B2FF30
:1038300010B100F007F8032016BD2046BDE8324065
:1038400000F0CDB8606D40F020006065704718B1A1
:10385000606D40F0200060657047A06838B90021B5
:1038600000912068C16800918068009000997047BD
:10387000BDE83240FFF793B80CB430B583B00446CE
:1038800006A802900A4600250194009502AB01A902
:10389000084878441E30FCF74BFC01990D70002855
:1038A0004EBF04460198041B204603B030BC5DF8AF
:1038B0000CFB00BFBBD8FFFF80B50748016841F093
:1038C000100101600320FFF7FCFB002000F04EF820
:1038D000FEF75AFD002002BD0020024010B5040092
:1038E00001D1012010BD0020A06294F8510010B950
:1038F0002046FEF766FD022184F851102068016819
:1039000021F0400101606268A068A1690243E0689B
:103910000243206902436069024301F40071E069D7
:103920000A430243206A0243A06A024320680260FD
:10393000A169606A090C01F004010143206841603B
:103940002068E16A01612068C16921F40061C161F8
:1039500000206065012084F85100002010BD0000A7
:1039600001484068704700BF0000002038B50D4D89
:103970000D4A297804464FF47A70B0FBF1F11068D3
:10398000B0FBF1F0FFF7D1FB50B9102C08D20022A8
:1039900021464FF0FF30FFF7A1FBAC60002032BDA5
:1039A000012032BD000000200C00002000B500BF47
:1039B000130096469446103928BFA0E80C50FAD858
:1039C0005FEA417C28BF0CC048BF40F8042BC90700
:1039D00028BF20F8022B48BF00F8012B00BD70471C
:1039E00070477047704770470100000000000000FA
:1039F0001000000000A24A04443C0008443C0008B7
:103A0000443C0008443C0008443C0008443C000896
:103A1000443C0008FFFFFFFFFFFFFFFF463C00089C
:103A2000443C0008443C0008FFFFFFFFFFFF00008C
:103A3000483C0008010000001000002000000000C9
:103A40000000000000000000000000000000000076
:103A50000000000000000000000000000000000066
:103A600000000000D910000800000000C710000886
:103A700001000000000000000E49086840F001004D
:103A800008604A680C4802404A600B680B480340D3
:103A90000B60086820F4802008604FF41F004A681B
:103AA00022F4FE024A6088604FF00060044908601A
:103AB00070470000001002400000FFF8FFFFF6FE14
:103AC00008ED00E000000000000000000102030417
:103AD000060708097047FEE7FEE7FEE7FEE77047C6
:103AE0007047704700F01EB80848FEF71EBE084831
:103AF000FEF71BBE0748FEF718BE0748FEF715BEC7
:103B00000648FFF742BD0648FEF759BA38020020C2
:103B10007C0200202C010020C00200209000002028
:103B2000E800002002494A68087882184A60704715
:103B30000000002019E050F8042BD30744BFA9F17E
:103B400001039A18091F0023042942F8043BF9D203
:103B50005FEA817C134604D54FF0000CA2F800C048
:103B60009B1CC90744BF0021197050F8041B002991
:103B7000E1D1704710B450F8041B79B10268436872
:103B800002440830DC0744BFA9F10104E31852F8ED
:103B9000044B43F8044B091FF9D1ECE710BC704704
:103BA00010B5074979441831064C7C44163404E0BA
:103BB0000A68081D114488470146A142F8D110BD8A
:103BC00008000000280000006DFFFFFF78020000E1
:103BD00090000020000000009DFFFFFF900000000B
:103BE00008FEFFFF000000200000000000F00DF8BC
:103BF000002801D0FFF7D4FFAFF300800020AFF31F
:103C00000080FEF7E3FE00F002F80120704700F0AC
:103C100001B8000007463846FEF700F9FBE7000050
:103C20000148804701480047793A0008313C0008C4
:103C3000AFF30080AFF30080FFF7D8FF0000000073
:103C40000102030400002E004300FFF7FEBFFFF750
:103C5000FEBFFFF7FEBFFFF7FEBFFFF7FEBFFFF798
:103C6000FEBFFFF7FEBFFFF7FEBFFFF7FEBFFFF788
:103C7000FEBFFFF7FEBFFFF7FEBFFFF7FEBFFFF778
:103C8000FEBFFFF7FEBFFFF7FEBFFFF7FEBFFFF768
:103C9000FEBFFFF7FEBFFFF7FEBFFFF7FEBFFFF758
:103CA000FEBFFFF7FEBFFFF7FEBFFFF7FEBFFFF748
:103CB000FEBFFFF7FEBFFFF7FEBFFFF7FEBFFFF738
:103CC000FEBFFFF7FEBFFFF7FEBFFFF7FEBFFFF728
:103CD000FEBFFFF7FEBFFFF7FEBFFFF7FEBFFFF718
:103CE000FEBFFFF7FEBFFFF7FEBFFFF7FEBFFFF708
:103CF000FEBFFFF7FEBFFFF7FEBFFFF7FEBFFFF7F8
:103D0000FEBFFFF7FEBFFFF7FEBFFFF7FEBFFFF7E7
:103D1000FEBFFFF7FEBFFFF7FEBFFFF7FEBFFFF7D7
:023D2000FEBFE4
:0400000508003C3182
:00000001FF
